{
  "contracts/Exchange.sol": {
    "Exchange": {
      "abi": [
        {
          "inputs": [
            {
              "internalType": "address",
              "name": "_feeAccount",
              "type": "address"
            },
            {
              "internalType": "uint256",
              "name": "_feePercent",
              "type": "uint256"
            }
          ],
          "stateMutability": "nonpayable",
          "type": "constructor"
        },
        {
          "anonymous": false,
          "inputs": [
            {
              "indexed": false,
              "internalType": "address",
              "name": "token",
              "type": "address"
            },
            {
              "indexed": false,
              "internalType": "uint256",
              "name": "amount",
              "type": "uint256"
            },
            {
              "indexed": false,
              "internalType": "uint256",
              "name": "timestamp",
              "type": "uint256"
            }
          ],
          "name": "FlashLoan",
          "type": "event"
        },
        {
          "anonymous": false,
          "inputs": [
            {
              "indexed": false,
              "internalType": "uint256",
              "name": "id",
              "type": "uint256"
            },
            {
              "indexed": false,
              "internalType": "address",
              "name": "user",
              "type": "address"
            },
            {
              "indexed": false,
              "internalType": "address",
              "name": "tokenGet",
              "type": "address"
            },
            {
              "indexed": false,
              "internalType": "uint256",
              "name": "amountGet",
              "type": "uint256"
            },
            {
              "indexed": false,
              "internalType": "address",
              "name": "tokenGive",
              "type": "address"
            },
            {
              "indexed": false,
              "internalType": "uint256",
              "name": "amountGive",
              "type": "uint256"
            },
            {
              "indexed": false,
              "internalType": "uint256",
              "name": "timestamp",
              "type": "uint256"
            }
          ],
          "name": "OrderCancelled",
          "type": "event"
        },
        {
          "anonymous": false,
          "inputs": [
            {
              "indexed": false,
              "internalType": "uint256",
              "name": "id",
              "type": "uint256"
            },
            {
              "indexed": false,
              "internalType": "address",
              "name": "user",
              "type": "address"
            },
            {
              "indexed": false,
              "internalType": "address",
              "name": "tokenGet",
              "type": "address"
            },
            {
              "indexed": false,
              "internalType": "uint256",
              "name": "amountGet",
              "type": "uint256"
            },
            {
              "indexed": false,
              "internalType": "address",
              "name": "tokenGive",
              "type": "address"
            },
            {
              "indexed": false,
              "internalType": "uint256",
              "name": "amountGive",
              "type": "uint256"
            },
            {
              "indexed": false,
              "internalType": "uint256",
              "name": "timestamp",
              "type": "uint256"
            }
          ],
          "name": "OrderCreated",
          "type": "event"
        },
        {
          "anonymous": false,
          "inputs": [
            {
              "indexed": false,
              "internalType": "uint256",
              "name": "id",
              "type": "uint256"
            },
            {
              "indexed": false,
              "internalType": "address",
              "name": "user",
              "type": "address"
            },
            {
              "indexed": false,
              "internalType": "address",
              "name": "tokenGet",
              "type": "address"
            },
            {
              "indexed": false,
              "internalType": "uint256",
              "name": "amountGet",
              "type": "uint256"
            },
            {
              "indexed": false,
              "internalType": "address",
              "name": "tokenGive",
              "type": "address"
            },
            {
              "indexed": false,
              "internalType": "uint256",
              "name": "amountGive",
              "type": "uint256"
            },
            {
              "indexed": false,
              "internalType": "address",
              "name": "creator",
              "type": "address"
            },
            {
              "indexed": false,
              "internalType": "uint256",
              "name": "timestamp",
              "type": "uint256"
            }
          ],
          "name": "OrderFilled",
          "type": "event"
        },
        {
          "anonymous": false,
          "inputs": [
            {
              "indexed": false,
              "internalType": "address",
              "name": "token",
              "type": "address"
            },
            {
              "indexed": false,
              "internalType": "address",
              "name": "user",
              "type": "address"
            },
            {
              "indexed": false,
              "internalType": "uint256",
              "name": "amount",
              "type": "uint256"
            },
            {
              "indexed": false,
              "internalType": "uint256",
              "name": "balance",
              "type": "uint256"
            }
          ],
          "name": "tokensDeposited",
          "type": "event"
        },
        {
          "anonymous": false,
          "inputs": [
            {
              "indexed": false,
              "internalType": "address",
              "name": "token",
              "type": "address"
            },
            {
              "indexed": false,
              "internalType": "address",
              "name": "user",
              "type": "address"
            },
            {
              "indexed": false,
              "internalType": "uint256",
              "name": "amount",
              "type": "uint256"
            },
            {
              "indexed": false,
              "internalType": "uint256",
              "name": "balance",
              "type": "uint256"
            }
          ],
          "name": "tokensWithdrawn",
          "type": "event"
        },
        {
          "inputs": [
            {
              "internalType": "address",
              "name": "_token",
              "type": "address"
            },
            {
              "internalType": "address",
              "name": "_user",
              "type": "address"
            }
          ],
          "name": "activeBalanceOf",
          "outputs": [
            {
              "internalType": "uint256",
              "name": "",
              "type": "uint256"
            }
          ],
          "stateMutability": "view",
          "type": "function"
        },
        {
          "inputs": [
            {
              "internalType": "uint256",
              "name": "_id",
              "type": "uint256"
            }
          ],
          "name": "cancelOrder",
          "outputs": [],
          "stateMutability": "nonpayable",
          "type": "function"
        },
        {
          "inputs": [
            {
              "internalType": "address",
              "name": "_token",
              "type": "address"
            },
            {
              "internalType": "uint256",
              "name": "_amount",
              "type": "uint256"
            }
          ],
          "name": "depositToken",
          "outputs": [],
          "stateMutability": "nonpayable",
          "type": "function"
        },
        {
          "inputs": [],
          "name": "feeAccount",
          "outputs": [
            {
              "internalType": "address",
              "name": "",
              "type": "address"
            }
          ],
          "stateMutability": "view",
          "type": "function"
        },
        {
          "inputs": [],
          "name": "feePercent",
          "outputs": [
            {
              "internalType": "uint256",
              "name": "",
              "type": "uint256"
            }
          ],
          "stateMutability": "view",
          "type": "function"
        },
        {
          "inputs": [
            {
              "internalType": "uint256",
              "name": "_id",
              "type": "uint256"
            }
          ],
          "name": "fillOrder",
          "outputs": [],
          "stateMutability": "nonpayable",
          "type": "function"
        },
        {
          "inputs": [
            {
              "internalType": "address",
              "name": "_token",
              "type": "address"
            },
            {
              "internalType": "uint256",
              "name": "_amount",
              "type": "uint256"
            },
            {
              "internalType": "bytes",
              "name": "_data",
              "type": "bytes"
            }
          ],
          "name": "flashLoan",
          "outputs": [],
          "stateMutability": "nonpayable",
          "type": "function"
        },
        {
          "inputs": [
            {
              "internalType": "uint256",
              "name": "",
              "type": "uint256"
            }
          ],
          "name": "isOrderCancelled",
          "outputs": [
            {
              "internalType": "bool",
              "name": "",
              "type": "bool"
            }
          ],
          "stateMutability": "view",
          "type": "function"
        },
        {
          "inputs": [
            {
              "internalType": "uint256",
              "name": "",
              "type": "uint256"
            }
          ],
          "name": "isOrderFilled",
          "outputs": [
            {
              "internalType": "bool",
              "name": "",
              "type": "bool"
            }
          ],
          "stateMutability": "view",
          "type": "function"
        },
        {
          "inputs": [
            {
              "internalType": "address",
              "name": "_tokenGet",
              "type": "address"
            },
            {
              "internalType": "uint256",
              "name": "_amountGet",
              "type": "uint256"
            },
            {
              "internalType": "address",
              "name": "_tokenGive",
              "type": "address"
            },
            {
              "internalType": "uint256",
              "name": "_amountGive",
              "type": "uint256"
            }
          ],
          "name": "makeOrder",
          "outputs": [],
          "stateMutability": "nonpayable",
          "type": "function"
        },
        {
          "inputs": [],
          "name": "orderCount",
          "outputs": [
            {
              "internalType": "uint256",
              "name": "",
              "type": "uint256"
            }
          ],
          "stateMutability": "view",
          "type": "function"
        },
        {
          "inputs": [
            {
              "internalType": "uint256",
              "name": "",
              "type": "uint256"
            }
          ],
          "name": "orders",
          "outputs": [
            {
              "internalType": "uint256",
              "name": "id",
              "type": "uint256"
            },
            {
              "internalType": "address",
              "name": "user",
              "type": "address"
            },
            {
              "internalType": "address",
              "name": "tokenGet",
              "type": "address"
            },
            {
              "internalType": "uint256",
              "name": "amountGet",
              "type": "uint256"
            },
            {
              "internalType": "address",
              "name": "tokenGive",
              "type": "address"
            },
            {
              "internalType": "uint256",
              "name": "amountGive",
              "type": "uint256"
            },
            {
              "internalType": "uint256",
              "name": "timestamp",
              "type": "uint256"
            }
          ],
          "stateMutability": "view",
          "type": "function"
        },
        {
          "inputs": [
            {
              "internalType": "address",
              "name": "_token",
              "type": "address"
            },
            {
              "internalType": "address",
              "name": "_user",
              "type": "address"
            }
          ],
          "name": "totalBalanceOf",
          "outputs": [
            {
              "internalType": "uint256",
              "name": "",
              "type": "uint256"
            }
          ],
          "stateMutability": "view",
          "type": "function"
        },
        {
          "inputs": [
            {
              "internalType": "address",
              "name": "_token",
              "type": "address"
            },
            {
              "internalType": "uint256",
              "name": "_amount",
              "type": "uint256"
            }
          ],
          "name": "withdrawToken",
          "outputs": [],
          "stateMutability": "nonpayable",
          "type": "function"
        }
      ],
      "evm": {
        "bytecode": {
          "linkReferences": {},
          "object": "608060405234801561001057600080fd5b5060405161283238038061283283398181016040528101906100329190610119565b816000806101000a81548173ffffffffffffffffffffffffffffffffffffffff021916908373ffffffffffffffffffffffffffffffffffffffff160217905550806001819055505050610159565b600080fd5b600073ffffffffffffffffffffffffffffffffffffffff82169050919050565b60006100b082610085565b9050919050565b6100c0816100a5565b81146100cb57600080fd5b50565b6000815190506100dd816100b7565b92915050565b6000819050919050565b6100f6816100e3565b811461010157600080fd5b50565b600081519050610113816100ed565b92915050565b600080604083850312156101305761012f610080565b5b600061013e858286016100ce565b925050602061014f85828601610104565b9150509250929050565b6126ca806101686000396000f3fe608060405234801561001057600080fd5b50600436106100ea5760003560e01c806384d10bff1161008c578063a85c38ef11610066578063a85c38ef14610235578063cd7857961461026b578063d425cb6f1461029b578063e0232b42146102cb576100ea565b806384d10bff146101cd5780639a5c90aa146101fd5780639e281a9814610219576100ea565b8063514fcac7116100c8578063514fcac71461015957806365e17c9d1461017557806367b830ad146101935780637fd6f15c146101af576100ea565b80631b1d1c81146100ef5780632453ffa81461011f578063338b5dea1461013d575b600080fd5b610109600480360381019061010491906118ce565b6102e7565b6040516101169190611916565b60405180910390f35b610127610307565b6040516101349190611940565b60405180910390f35b610157600480360381019061015291906119b9565b61030d565b005b610173600480360381019061016e91906118ce565b61051c565b005b61017d6107b1565b60405161018a9190611a08565b60405180910390f35b6101ad60048036038101906101a891906118ce565b6107d5565b005b6101b7610a65565b6040516101c49190611940565b60405180910390f35b6101e760048036038101906101e29190611a23565b610a6b565b6040516101f49190611940565b60405180910390f35b61021760048036038101906102129190611a63565b610af2565b005b610233600480360381019061022e91906119b9565b610dd4565b005b61024f600480360381019061024a91906118ce565b611041565b6040516102629796959493929190611aca565b60405180910390f35b61028560048036038101906102809190611a23565b6110e3565b6040516102929190611940565b60405180910390f35b6102b560048036038101906102b091906118ce565b61116a565b6040516102c29190611916565b60405180910390f35b6102e560048036038101906102e09190611c7f565b61118a565b005b60046020528060005260406000206000915054906101000a900460ff1681565b60025481565b80600660008473ffffffffffffffffffffffffffffffffffffffff1673ffffffffffffffffffffffffffffffffffffffff16815260200190815260200160002060003373ffffffffffffffffffffffffffffffffffffffff1673ffffffffffffffffffffffffffffffffffffffff16815260200190815260200160002060008282546103999190611d1d565b925050819055507fa19fa08c6ea3ead58d83e86ac9572ac3e9a9a48a751f6165bf17878a4a6c1c14823383600660008773ffffffffffffffffffffffffffffffffffffffff1673ffffffffffffffffffffffffffffffffffffffff16815260200190815260200160002060003373ffffffffffffffffffffffffffffffffffffffff1673ffffffffffffffffffffffffffffffffffffffff168152602001908152602001600020546040516104519493929190611d51565b60405180910390a18173ffffffffffffffffffffffffffffffffffffffff166323b872dd3330846040518463ffffffff1660e01b815260040161049693929190611d96565b6020604051808303816000875af11580156104b5573d6000803e3d6000fd5b505050506040513d601f19601f820116820180604052508101906104d99190611df9565b610518576040517f08c379a000000000000000000000000000000000000000000000000000000000815260040161050f90611e83565b60405180910390fd5b5050565b600060036000838152602001908152602001600020905081816000015414610579576040517f08c379a000000000000000000000000000000000000000000000000000000000815260040161057090611eef565b60405180910390fd5b3373ffffffffffffffffffffffffffffffffffffffff168160010160009054906101000a900473ffffffffffffffffffffffffffffffffffffffff1673ffffffffffffffffffffffffffffffffffffffff161461060b576040517f08c379a000000000000000000000000000000000000000000000000000000000815260040161060290611f5b565b60405180910390fd5b60016004600084815260200190815260200160002060006101000a81548160ff0219169083151502179055508060050154600760008360040160009054906101000a900473ffffffffffffffffffffffffffffffffffffffff1673ffffffffffffffffffffffffffffffffffffffff1673ffffffffffffffffffffffffffffffffffffffff16815260200190815260200160002060008360010160009054906101000a900473ffffffffffffffffffffffffffffffffffffffff1673ffffffffffffffffffffffffffffffffffffffff1673ffffffffffffffffffffffffffffffffffffffff168152602001908152602001600020600082825461070f9190611f7b565b925050819055507f0fc466a139855d3b21f9eb9dfdadd9dfdaf9b58bd400756b26083b7077055e278160000154338360020160009054906101000a900473ffffffffffffffffffffffffffffffffffffffff1684600301548560040160009054906101000a900473ffffffffffffffffffffffffffffffffffffffff168660050154426040516107a59796959493929190611aca565b60405180910390a15050565b60008054906101000a900473ffffffffffffffffffffffffffffffffffffffff1681565b6000811180156107e757506002548111155b610826576040517f08c379a000000000000000000000000000000000000000000000000000000000815260040161081d90611ffb565b60405180910390fd5b6005600082815260200190815260200160002060009054906101000a900460ff1615610887576040517f08c379a000000000000000000000000000000000000000000000000000000000815260040161087e9061208d565b60405180910390fd5b6004600082815260200190815260200160002060009054906101000a900460ff16156108e8576040517f08c379a00000000000000000000000000000000000000000000000000000000081526004016108df9061211f565b60405180910390fd5b600060036000838152602001908152602001600020905080600301546109328260020160009054906101000a900473ffffffffffffffffffffffffffffffffffffffff16336110e3565b61093c9190611d1d565b61096a8260020160009054906101000a900473ffffffffffffffffffffffffffffffffffffffff1633610a6b565b10156109ab576040517f08c379a00000000000000000000000000000000000000000000000000000000081526004016109a29061218b565b60405180910390fd5b610a3181600001548260010160009054906101000a900473ffffffffffffffffffffffffffffffffffffffff168360020160009054906101000a900473ffffffffffffffffffffffffffffffffffffffff1684600301548560040160009054906101000a900473ffffffffffffffffffffffffffffffffffffffff16866005015461147a565b6001600560008360000154815260200190815260200160002060006101000a81548160ff0219169083151502179055505050565b60015481565b6000600660008473ffffffffffffffffffffffffffffffffffffffff1673ffffffffffffffffffffffffffffffffffffffff16815260200190815260200160002060008373ffffffffffffffffffffffffffffffffffffffff1673ffffffffffffffffffffffffffffffffffffffff16815260200190815260200160002054905092915050565b80610afd83336110e3565b610b079190611d1d565b610b118333610a6b565b1015610b52576040517f08c379a0000000000000000000000000000000000000000000000000000000008152600401610b499061218b565b60405180910390fd5b60026000815480929190610b65906121ab565b919050555080600760008473ffffffffffffffffffffffffffffffffffffffff1673ffffffffffffffffffffffffffffffffffffffff16815260200190815260200160002060003373ffffffffffffffffffffffffffffffffffffffff1673ffffffffffffffffffffffffffffffffffffffff1681526020019081526020016000206000828254610bf69190611d1d565b925050819055506040518060e0016040528060025481526020013373ffffffffffffffffffffffffffffffffffffffff1681526020018573ffffffffffffffffffffffffffffffffffffffff1681526020018481526020018373ffffffffffffffffffffffffffffffffffffffff168152602001828152602001428152506003600060025481526020019081526020016000206000820151816000015560208201518160010160006101000a81548173ffffffffffffffffffffffffffffffffffffffff021916908373ffffffffffffffffffffffffffffffffffffffff16021790555060408201518160020160006101000a81548173ffffffffffffffffffffffffffffffffffffffff021916908373ffffffffffffffffffffffffffffffffffffffff1602179055506060820151816003015560808201518160040160006101000a81548173ffffffffffffffffffffffffffffffffffffffff021916908373ffffffffffffffffffffffffffffffffffffffff16021790555060a0820151816005015560c082015181600601559050507ff4e94e11847dd5a076a1f8bc24ec98dfa58292de438d62656742b833fe022ec0600254338686868642604051610dc69796959493929190611aca565b60405180910390a150505050565b80610ddf83336110e3565b610de98433610a6b565b610df39190611f7b565b1015610e34576040517f08c379a0000000000000000000000000000000000000000000000000000000008152600401610e2b9061223f565b60405180910390fd5b80600660008473ffffffffffffffffffffffffffffffffffffffff1673ffffffffffffffffffffffffffffffffffffffff16815260200190815260200160002060003373ffffffffffffffffffffffffffffffffffffffff1673ffffffffffffffffffffffffffffffffffffffff1681526020019081526020016000206000828254610ec09190611f7b565b925050819055507f3c076ff0b3dc25856576e4c4ab3876d78d1ea679d89da4cd210a67f227922b3b823383600660008773ffffffffffffffffffffffffffffffffffffffff1673ffffffffffffffffffffffffffffffffffffffff16815260200190815260200160002060003373ffffffffffffffffffffffffffffffffffffffff1673ffffffffffffffffffffffffffffffffffffffff16815260200190815260200160002054604051610f789493929190611d51565b60405180910390a18173ffffffffffffffffffffffffffffffffffffffff1663a9059cbb33836040518363ffffffff1660e01b8152600401610fbb92919061225f565b6020604051808303816000875af1158015610fda573d6000803e3d6000fd5b505050506040513d601f19601f82011682018060405250810190610ffe9190611df9565b61103d576040517f08c379a000000000000000000000000000000000000000000000000000000000815260040161103490611e83565b60405180910390fd5b5050565b60036020528060005260406000206000915090508060000154908060010160009054906101000a900473ffffffffffffffffffffffffffffffffffffffff16908060020160009054906101000a900473ffffffffffffffffffffffffffffffffffffffff16908060030154908060040160009054906101000a900473ffffffffffffffffffffffffffffffffffffffff16908060050154908060060154905087565b6000600760008473ffffffffffffffffffffffffffffffffffffffff1673ffffffffffffffffffffffffffffffffffffffff16815260200190815260200160002060008373ffffffffffffffffffffffffffffffffffffffff1673ffffffffffffffffffffffffffffffffffffffff16815260200190815260200160002054905092915050565b60056020528060005260406000206000915054906101000a900460ff1681565b60008373ffffffffffffffffffffffffffffffffffffffff166370a08231306040518263ffffffff1660e01b81526004016111c59190611a08565b602060405180830381865afa1580156111e2573d6000803e3d6000fd5b505050506040513d601f19601f82011682018060405250810190611206919061229d565b90506000811161124b576040517f08c379a00000000000000000000000000000000000000000000000000000000081526004016112429061233c565b60405180910390fd5b8373ffffffffffffffffffffffffffffffffffffffff1663a9059cbb33856040518363ffffffff1660e01b815260040161128692919061225f565b6020604051808303816000875af11580156112a5573d6000803e3d6000fd5b505050506040513d601f19601f820116820180604052508101906112c99190611df9565b611308576040517f08c379a00000000000000000000000000000000000000000000000000000000081526004016112ff906123ce565b60405180910390fd5b3373ffffffffffffffffffffffffffffffffffffffff1663958fa2808585856040518463ffffffff1660e01b81526004016113459392919061246d565b600060405180830381600087803b15801561135f57600080fd5b505af1158015611373573d6000803e3d6000fd5b5050505060008473ffffffffffffffffffffffffffffffffffffffff166370a08231306040518263ffffffff1660e01b81526004016113b29190611a08565b602060405180830381865afa1580156113cf573d6000803e3d6000fd5b505050506040513d601f19601f820116820180604052508101906113f3919061229d565b905081811015611438576040517f08c379a000000000000000000000000000000000000000000000000000000000815260040161142f9061251d565b60405180910390fd5b7f31aaad38f00845a242d16ae90d7bd72fc68f0e22581470f9dc0de241210c288685854260405161146b9392919061253d565b60405180910390a15050505050565b600060646001548561148c9190612574565b61149691906125e5565b905080846114a49190611d1d565b600660008773ffffffffffffffffffffffffffffffffffffffff1673ffffffffffffffffffffffffffffffffffffffff16815260200190815260200160002060003373ffffffffffffffffffffffffffffffffffffffff1673ffffffffffffffffffffffffffffffffffffffff168152602001908152602001600020600082825461152f9190611f7b565b9250508190555083600660008773ffffffffffffffffffffffffffffffffffffffff1673ffffffffffffffffffffffffffffffffffffffff16815260200190815260200160002060008873ffffffffffffffffffffffffffffffffffffffff1673ffffffffffffffffffffffffffffffffffffffff16815260200190815260200160002060008282546115c29190611d1d565b9250508190555080600660008773ffffffffffffffffffffffffffffffffffffffff1673ffffffffffffffffffffffffffffffffffffffff16815260200190815260200160002060008060009054906101000a900473ffffffffffffffffffffffffffffffffffffffff1673ffffffffffffffffffffffffffffffffffffffff1673ffffffffffffffffffffffffffffffffffffffff16815260200190815260200160002060008282546116769190611d1d565b9250508190555081600660008573ffffffffffffffffffffffffffffffffffffffff1673ffffffffffffffffffffffffffffffffffffffff16815260200190815260200160002060008873ffffffffffffffffffffffffffffffffffffffff1673ffffffffffffffffffffffffffffffffffffffff16815260200190815260200160002060008282546117099190611f7b565b9250508190555081600660008573ffffffffffffffffffffffffffffffffffffffff1673ffffffffffffffffffffffffffffffffffffffff16815260200190815260200160002060003373ffffffffffffffffffffffffffffffffffffffff1673ffffffffffffffffffffffffffffffffffffffff168152602001908152602001600020600082825461179c9190611d1d565b9250508190555081600760008573ffffffffffffffffffffffffffffffffffffffff1673ffffffffffffffffffffffffffffffffffffffff16815260200190815260200160002060008873ffffffffffffffffffffffffffffffffffffffff1673ffffffffffffffffffffffffffffffffffffffff168152602001908152602001600020600082825461182f9190611f7b565b925050819055507f3f18c6d086d994230a01522d5756546e531baf4669ec8aea8cb68180b184c3848733878787878c42604051611873989796959493929190612616565b60405180910390a150505050505050565b6000604051905090565b600080fd5b600080fd5b6000819050919050565b6118ab81611898565b81146118b657600080fd5b50565b6000813590506118c8816118a2565b92915050565b6000602082840312156118e4576118e361188e565b5b60006118f2848285016118b9565b91505092915050565b60008115159050919050565b611910816118fb565b82525050565b600060208201905061192b6000830184611907565b92915050565b61193a81611898565b82525050565b60006020820190506119556000830184611931565b92915050565b600073ffffffffffffffffffffffffffffffffffffffff82169050919050565b60006119868261195b565b9050919050565b6119968161197b565b81146119a157600080fd5b50565b6000813590506119b38161198d565b92915050565b600080604083850312156119d0576119cf61188e565b5b60006119de858286016119a4565b92505060206119ef858286016118b9565b9150509250929050565b611a028161197b565b82525050565b6000602082019050611a1d60008301846119f9565b92915050565b60008060408385031215611a3a57611a3961188e565b5b6000611a48858286016119a4565b9250506020611a59858286016119a4565b9150509250929050565b60008060008060808587031215611a7d57611a7c61188e565b5b6000611a8b878288016119a4565b9450506020611a9c878288016118b9565b9350506040611aad878288016119a4565b9250506060611abe878288016118b9565b91505092959194509250565b600060e082019050611adf600083018a611931565b611aec60208301896119f9565b611af960408301886119f9565b611b066060830187611931565b611b1360808301866119f9565b611b2060a0830185611931565b611b2d60c0830184611931565b98975050505050505050565b600080fd5b600080fd5b6000601f19601f8301169050919050565b7f4e487b7100000000000000000000000000000000000000000000000000000000600052604160045260246000fd5b611b8c82611b43565b810181811067ffffffffffffffff82111715611bab57611baa611b54565b5b80604052505050565b6000611bbe611884565b9050611bca8282611b83565b919050565b600067ffffffffffffffff821115611bea57611be9611b54565b5b611bf382611b43565b9050602081019050919050565b82818337600083830152505050565b6000611c22611c1d84611bcf565b611bb4565b905082815260208101848484011115611c3e57611c3d611b3e565b5b611c49848285611c00565b509392505050565b600082601f830112611c6657611c65611b39565b5b8135611c76848260208601611c0f565b91505092915050565b600080600060608486031215611c9857611c9761188e565b5b6000611ca6868287016119a4565b9350506020611cb7868287016118b9565b925050604084013567ffffffffffffffff811115611cd857611cd7611893565b5b611ce486828701611c51565b9150509250925092565b7f4e487b7100000000000000000000000000000000000000000000000000000000600052601160045260246000fd5b6000611d2882611898565b9150611d3383611898565b9250828201905080821115611d4b57611d4a611cee565b5b92915050565b6000608082019050611d6660008301876119f9565b611d7360208301866119f9565b611d806040830185611931565b611d8d6060830184611931565b95945050505050565b6000606082019050611dab60008301866119f9565b611db860208301856119f9565b611dc56040830184611931565b949350505050565b611dd6816118fb565b8114611de157600080fd5b50565b600081519050611df381611dcd565b92915050565b600060208284031215611e0f57611e0e61188e565b5b6000611e1d84828501611de4565b91505092915050565b600082825260208201905092915050565b7f45786368616e67653a20546f6b656e207472616e73666572206661696c656400600082015250565b6000611e6d601f83611e26565b9150611e7882611e37565b602082019050919050565b60006020820190508181036000830152611e9c81611e60565b9050919050565b7f45786368616e67653a204f7264657220646f6573206e6f742065786973740000600082015250565b6000611ed9601e83611e26565b9150611ee482611ea3565b602082019050919050565b60006020820190508181036000830152611f0881611ecc565b9050919050565b7f45786368616e67653a204e4f5420746865204f776e6572000000000000000000600082015250565b6000611f45601783611e26565b9150611f5082611f0f565b602082019050919050565b60006020820190508181036000830152611f7481611f38565b9050919050565b6000611f8682611898565b9150611f9183611898565b9250828203905081811115611fa957611fa8611cee565b5b92915050565b7f45786368616e67653a204f7264657220646f6573206e6f742045786973740000600082015250565b6000611fe5601e83611e26565b9150611ff082611faf565b602082019050919050565b6000602082019050818103600083015261201481611fd8565b9050919050565b7f45786368616e67653a204f726465722068617320616c7265616479206265656e60008201527f2066696c6c656400000000000000000000000000000000000000000000000000602082015250565b6000612077602783611e26565b91506120828261201b565b604082019050919050565b600060208201905081810360008301526120a68161206a565b9050919050565b7f45786368616e67653a204f7264657220686173206265656e2063616e63656c6560008201527f6400000000000000000000000000000000000000000000000000000000000000602082015250565b6000612109602183611e26565b9150612114826120ad565b604082019050919050565b60006020820190508181036000830152612138816120fc565b9050919050565b7f45786368616e67653a20496e73756666696369656e742062616c616e63650000600082015250565b6000612175601e83611e26565b91506121808261213f565b602082019050919050565b600060208201905081810360008301526121a481612168565b9050919050565b60006121b682611898565b91507fffffffffffffffffffffffffffffffffffffffffffffffffffffffffffffffff82036121e8576121e7611cee565b5b600182019050919050565b7f45786368616e67653a20496e73756666696369656e742042616c616e63650000600082015250565b6000612229601e83611e26565b9150612234826121f3565b602082019050919050565b600060208201905081810360008301526122588161221c565b9050919050565b600060408201905061227460008301856119f9565b6122816020830184611931565b9392505050565b600081519050612297816118a2565b92915050565b6000602082840312156122b3576122b261188e565b5b60006122c184828501612288565b91505092915050565b7f466c6173684c6f616e50726f76696465723a20496e73756666696369656e742060008201527f66756e647320746f206c6f616e00000000000000000000000000000000000000602082015250565b6000612326602d83611e26565b9150612331826122ca565b604082019050919050565b6000602082019050818103600083015261235581612319565b9050919050565b7f466c6173684c6f616e50726f76696465723a205472616e73666572204661696c60008201527f6564000000000000000000000000000000000000000000000000000000000000602082015250565b60006123b8602283611e26565b91506123c38261235c565b604082019050919050565b600060208201905081810360008301526123e7816123ab565b9050919050565b600081519050919050565b600082825260208201905092915050565b60005b8381101561242857808201518184015260208101905061240d565b60008484015250505050565b600061243f826123ee565b61244981856123f9565b935061245981856020860161240a565b61246281611b43565b840191505092915050565b600060608201905061248260008301866119f9565b61248f6020830185611931565b81810360408301526124a18184612434565b9050949350505050565b7f466c6173684c6f616e50726f76696465723a2046756e6473206e6f742052656360008201527f6569766564000000000000000000000000000000000000000000000000000000602082015250565b6000612507602583611e26565b9150612512826124ab565b604082019050919050565b60006020820190508181036000830152612536816124fa565b9050919050565b600060608201905061255260008301866119f9565b61255f6020830185611931565b61256c6040830184611931565b949350505050565b600061257f82611898565b915061258a83611898565b925082820261259881611898565b915082820484148315176125af576125ae611cee565b5b5092915050565b7f4e487b7100000000000000000000000000000000000000000000000000000000600052601260045260246000fd5b60006125f082611898565b91506125fb83611898565b92508261260b5761260a6125b6565b5b828204905092915050565b60006101008201905061262c600083018b611931565b612639602083018a6119f9565b61264660408301896119f9565b6126536060830188611931565b61266060808301876119f9565b61266d60a0830186611931565b61267a60c08301856119f9565b61268760e0830184611931565b999850505050505050505056fea2646970667358221220ec4e97bd8f079002a2ef65b8e762d74b064a510705aa39e458804c26a9a1aca964736f6c634300081c0033",
          "opcodes": "PUSH1 0x80 PUSH1 0x40 MSTORE CALLVALUE DUP1 ISZERO PUSH2 0x10 JUMPI PUSH1 0x0 DUP1 REVERT JUMPDEST POP PUSH1 0x40 MLOAD PUSH2 0x2832 CODESIZE SUB DUP1 PUSH2 0x2832 DUP4 CODECOPY DUP2 DUP2 ADD PUSH1 0x40 MSTORE DUP2 ADD SWAP1 PUSH2 0x32 SWAP2 SWAP1 PUSH2 0x119 JUMP JUMPDEST DUP2 PUSH1 0x0 DUP1 PUSH2 0x100 EXP DUP2 SLOAD DUP2 PUSH20 0xFFFFFFFFFFFFFFFFFFFFFFFFFFFFFFFFFFFFFFFF MUL NOT AND SWAP1 DUP4 PUSH20 0xFFFFFFFFFFFFFFFFFFFFFFFFFFFFFFFFFFFFFFFF AND MUL OR SWAP1 SSTORE POP DUP1 PUSH1 0x1 DUP2 SWAP1 SSTORE POP POP POP PUSH2 0x159 JUMP JUMPDEST PUSH1 0x0 DUP1 REVERT JUMPDEST PUSH1 0x0 PUSH20 0xFFFFFFFFFFFFFFFFFFFFFFFFFFFFFFFFFFFFFFFF DUP3 AND SWAP1 POP SWAP2 SWAP1 POP JUMP JUMPDEST PUSH1 0x0 PUSH2 0xB0 DUP3 PUSH2 0x85 JUMP JUMPDEST SWAP1 POP SWAP2 SWAP1 POP JUMP JUMPDEST PUSH2 0xC0 DUP2 PUSH2 0xA5 JUMP JUMPDEST DUP2 EQ PUSH2 0xCB JUMPI PUSH1 0x0 DUP1 REVERT JUMPDEST POP JUMP JUMPDEST PUSH1 0x0 DUP2 MLOAD SWAP1 POP PUSH2 0xDD DUP2 PUSH2 0xB7 JUMP JUMPDEST SWAP3 SWAP2 POP POP JUMP JUMPDEST PUSH1 0x0 DUP2 SWAP1 POP SWAP2 SWAP1 POP JUMP JUMPDEST PUSH2 0xF6 DUP2 PUSH2 0xE3 JUMP JUMPDEST DUP2 EQ PUSH2 0x101 JUMPI PUSH1 0x0 DUP1 REVERT JUMPDEST POP JUMP JUMPDEST PUSH1 0x0 DUP2 MLOAD SWAP1 POP PUSH2 0x113 DUP2 PUSH2 0xED JUMP JUMPDEST SWAP3 SWAP2 POP POP JUMP JUMPDEST PUSH1 0x0 DUP1 PUSH1 0x40 DUP4 DUP6 SUB SLT ISZERO PUSH2 0x130 JUMPI PUSH2 0x12F PUSH2 0x80 JUMP JUMPDEST JUMPDEST PUSH1 0x0 PUSH2 0x13E DUP6 DUP3 DUP7 ADD PUSH2 0xCE JUMP JUMPDEST SWAP3 POP POP PUSH1 0x20 PUSH2 0x14F DUP6 DUP3 DUP7 ADD PUSH2 0x104 JUMP JUMPDEST SWAP2 POP POP SWAP3 POP SWAP3 SWAP1 POP JUMP JUMPDEST PUSH2 0x26CA DUP1 PUSH2 0x168 PUSH1 0x0 CODECOPY PUSH1 0x0 RETURN INVALID PUSH1 0x80 PUSH1 0x40 MSTORE CALLVALUE DUP1 ISZERO PUSH2 0x10 JUMPI PUSH1 0x0 DUP1 REVERT JUMPDEST POP PUSH1 0x4 CALLDATASIZE LT PUSH2 0xEA JUMPI PUSH1 0x0 CALLDATALOAD PUSH1 0xE0 SHR DUP1 PUSH4 0x84D10BFF GT PUSH2 0x8C JUMPI DUP1 PUSH4 0xA85C38EF GT PUSH2 0x66 JUMPI DUP1 PUSH4 0xA85C38EF EQ PUSH2 0x235 JUMPI DUP1 PUSH4 0xCD785796 EQ PUSH2 0x26B JUMPI DUP1 PUSH4 0xD425CB6F EQ PUSH2 0x29B JUMPI DUP1 PUSH4 0xE0232B42 EQ PUSH2 0x2CB JUMPI PUSH2 0xEA JUMP JUMPDEST DUP1 PUSH4 0x84D10BFF EQ PUSH2 0x1CD JUMPI DUP1 PUSH4 0x9A5C90AA EQ PUSH2 0x1FD JUMPI DUP1 PUSH4 0x9E281A98 EQ PUSH2 0x219 JUMPI PUSH2 0xEA JUMP JUMPDEST DUP1 PUSH4 0x514FCAC7 GT PUSH2 0xC8 JUMPI DUP1 PUSH4 0x514FCAC7 EQ PUSH2 0x159 JUMPI DUP1 PUSH4 0x65E17C9D EQ PUSH2 0x175 JUMPI DUP1 PUSH4 0x67B830AD EQ PUSH2 0x193 JUMPI DUP1 PUSH4 0x7FD6F15C EQ PUSH2 0x1AF JUMPI PUSH2 0xEA JUMP JUMPDEST DUP1 PUSH4 0x1B1D1C81 EQ PUSH2 0xEF JUMPI DUP1 PUSH4 0x2453FFA8 EQ PUSH2 0x11F JUMPI DUP1 PUSH4 0x338B5DEA EQ PUSH2 0x13D JUMPI JUMPDEST PUSH1 0x0 DUP1 REVERT JUMPDEST PUSH2 0x109 PUSH1 0x4 DUP1 CALLDATASIZE SUB DUP2 ADD SWAP1 PUSH2 0x104 SWAP2 SWAP1 PUSH2 0x18CE JUMP JUMPDEST PUSH2 0x2E7 JUMP JUMPDEST PUSH1 0x40 MLOAD PUSH2 0x116 SWAP2 SWAP1 PUSH2 0x1916 JUMP JUMPDEST PUSH1 0x40 MLOAD DUP1 SWAP2 SUB SWAP1 RETURN JUMPDEST PUSH2 0x127 PUSH2 0x307 JUMP JUMPDEST PUSH1 0x40 MLOAD PUSH2 0x134 SWAP2 SWAP1 PUSH2 0x1940 JUMP JUMPDEST PUSH1 0x40 MLOAD DUP1 SWAP2 SUB SWAP1 RETURN JUMPDEST PUSH2 0x157 PUSH1 0x4 DUP1 CALLDATASIZE SUB DUP2 ADD SWAP1 PUSH2 0x152 SWAP2 SWAP1 PUSH2 0x19B9 JUMP JUMPDEST PUSH2 0x30D JUMP JUMPDEST STOP JUMPDEST PUSH2 0x173 PUSH1 0x4 DUP1 CALLDATASIZE SUB DUP2 ADD SWAP1 PUSH2 0x16E SWAP2 SWAP1 PUSH2 0x18CE JUMP JUMPDEST PUSH2 0x51C JUMP JUMPDEST STOP JUMPDEST PUSH2 0x17D PUSH2 0x7B1 JUMP JUMPDEST PUSH1 0x40 MLOAD PUSH2 0x18A SWAP2 SWAP1 PUSH2 0x1A08 JUMP JUMPDEST PUSH1 0x40 MLOAD DUP1 SWAP2 SUB SWAP1 RETURN JUMPDEST PUSH2 0x1AD PUSH1 0x4 DUP1 CALLDATASIZE SUB DUP2 ADD SWAP1 PUSH2 0x1A8 SWAP2 SWAP1 PUSH2 0x18CE JUMP JUMPDEST PUSH2 0x7D5 JUMP JUMPDEST STOP JUMPDEST PUSH2 0x1B7 PUSH2 0xA65 JUMP JUMPDEST PUSH1 0x40 MLOAD PUSH2 0x1C4 SWAP2 SWAP1 PUSH2 0x1940 JUMP JUMPDEST PUSH1 0x40 MLOAD DUP1 SWAP2 SUB SWAP1 RETURN JUMPDEST PUSH2 0x1E7 PUSH1 0x4 DUP1 CALLDATASIZE SUB DUP2 ADD SWAP1 PUSH2 0x1E2 SWAP2 SWAP1 PUSH2 0x1A23 JUMP JUMPDEST PUSH2 0xA6B JUMP JUMPDEST PUSH1 0x40 MLOAD PUSH2 0x1F4 SWAP2 SWAP1 PUSH2 0x1940 JUMP JUMPDEST PUSH1 0x40 MLOAD DUP1 SWAP2 SUB SWAP1 RETURN JUMPDEST PUSH2 0x217 PUSH1 0x4 DUP1 CALLDATASIZE SUB DUP2 ADD SWAP1 PUSH2 0x212 SWAP2 SWAP1 PUSH2 0x1A63 JUMP JUMPDEST PUSH2 0xAF2 JUMP JUMPDEST STOP JUMPDEST PUSH2 0x233 PUSH1 0x4 DUP1 CALLDATASIZE SUB DUP2 ADD SWAP1 PUSH2 0x22E SWAP2 SWAP1 PUSH2 0x19B9 JUMP JUMPDEST PUSH2 0xDD4 JUMP JUMPDEST STOP JUMPDEST PUSH2 0x24F PUSH1 0x4 DUP1 CALLDATASIZE SUB DUP2 ADD SWAP1 PUSH2 0x24A SWAP2 SWAP1 PUSH2 0x18CE JUMP JUMPDEST PUSH2 0x1041 JUMP JUMPDEST PUSH1 0x40 MLOAD PUSH2 0x262 SWAP8 SWAP7 SWAP6 SWAP5 SWAP4 SWAP3 SWAP2 SWAP1 PUSH2 0x1ACA JUMP JUMPDEST PUSH1 0x40 MLOAD DUP1 SWAP2 SUB SWAP1 RETURN JUMPDEST PUSH2 0x285 PUSH1 0x4 DUP1 CALLDATASIZE SUB DUP2 ADD SWAP1 PUSH2 0x280 SWAP2 SWAP1 PUSH2 0x1A23 JUMP JUMPDEST PUSH2 0x10E3 JUMP JUMPDEST PUSH1 0x40 MLOAD PUSH2 0x292 SWAP2 SWAP1 PUSH2 0x1940 JUMP JUMPDEST PUSH1 0x40 MLOAD DUP1 SWAP2 SUB SWAP1 RETURN JUMPDEST PUSH2 0x2B5 PUSH1 0x4 DUP1 CALLDATASIZE SUB DUP2 ADD SWAP1 PUSH2 0x2B0 SWAP2 SWAP1 PUSH2 0x18CE JUMP JUMPDEST PUSH2 0x116A JUMP JUMPDEST PUSH1 0x40 MLOAD PUSH2 0x2C2 SWAP2 SWAP1 PUSH2 0x1916 JUMP JUMPDEST PUSH1 0x40 MLOAD DUP1 SWAP2 SUB SWAP1 RETURN JUMPDEST PUSH2 0x2E5 PUSH1 0x4 DUP1 CALLDATASIZE SUB DUP2 ADD SWAP1 PUSH2 0x2E0 SWAP2 SWAP1 PUSH2 0x1C7F JUMP JUMPDEST PUSH2 0x118A JUMP JUMPDEST STOP JUMPDEST PUSH1 0x4 PUSH1 0x20 MSTORE DUP1 PUSH1 0x0 MSTORE PUSH1 0x40 PUSH1 0x0 KECCAK256 PUSH1 0x0 SWAP2 POP SLOAD SWAP1 PUSH2 0x100 EXP SWAP1 DIV PUSH1 0xFF AND DUP2 JUMP JUMPDEST PUSH1 0x2 SLOAD DUP2 JUMP JUMPDEST DUP1 PUSH1 0x6 PUSH1 0x0 DUP5 PUSH20 0xFFFFFFFFFFFFFFFFFFFFFFFFFFFFFFFFFFFFFFFF AND PUSH20 0xFFFFFFFFFFFFFFFFFFFFFFFFFFFFFFFFFFFFFFFF AND DUP2 MSTORE PUSH1 0x20 ADD SWAP1 DUP2 MSTORE PUSH1 0x20 ADD PUSH1 0x0 KECCAK256 PUSH1 0x0 CALLER PUSH20 0xFFFFFFFFFFFFFFFFFFFFFFFFFFFFFFFFFFFFFFFF AND PUSH20 0xFFFFFFFFFFFFFFFFFFFFFFFFFFFFFFFFFFFFFFFF AND DUP2 MSTORE PUSH1 0x20 ADD SWAP1 DUP2 MSTORE PUSH1 0x20 ADD PUSH1 0x0 KECCAK256 PUSH1 0x0 DUP3 DUP3 SLOAD PUSH2 0x399 SWAP2 SWAP1 PUSH2 0x1D1D JUMP JUMPDEST SWAP3 POP POP DUP2 SWAP1 SSTORE POP PUSH32 0xA19FA08C6EA3EAD58D83E86AC9572AC3E9A9A48A751F6165BF17878A4A6C1C14 DUP3 CALLER DUP4 PUSH1 0x6 PUSH1 0x0 DUP8 PUSH20 0xFFFFFFFFFFFFFFFFFFFFFFFFFFFFFFFFFFFFFFFF AND PUSH20 0xFFFFFFFFFFFFFFFFFFFFFFFFFFFFFFFFFFFFFFFF AND DUP2 MSTORE PUSH1 0x20 ADD SWAP1 DUP2 MSTORE PUSH1 0x20 ADD PUSH1 0x0 KECCAK256 PUSH1 0x0 CALLER PUSH20 0xFFFFFFFFFFFFFFFFFFFFFFFFFFFFFFFFFFFFFFFF AND PUSH20 0xFFFFFFFFFFFFFFFFFFFFFFFFFFFFFFFFFFFFFFFF AND DUP2 MSTORE PUSH1 0x20 ADD SWAP1 DUP2 MSTORE PUSH1 0x20 ADD PUSH1 0x0 KECCAK256 SLOAD PUSH1 0x40 MLOAD PUSH2 0x451 SWAP5 SWAP4 SWAP3 SWAP2 SWAP1 PUSH2 0x1D51 JUMP JUMPDEST PUSH1 0x40 MLOAD DUP1 SWAP2 SUB SWAP1 LOG1 DUP2 PUSH20 0xFFFFFFFFFFFFFFFFFFFFFFFFFFFFFFFFFFFFFFFF AND PUSH4 0x23B872DD CALLER ADDRESS DUP5 PUSH1 0x40 MLOAD DUP5 PUSH4 0xFFFFFFFF AND PUSH1 0xE0 SHL DUP2 MSTORE PUSH1 0x4 ADD PUSH2 0x496 SWAP4 SWAP3 SWAP2 SWAP1 PUSH2 0x1D96 JUMP JUMPDEST PUSH1 0x20 PUSH1 0x40 MLOAD DUP1 DUP4 SUB DUP2 PUSH1 0x0 DUP8 GAS CALL ISZERO DUP1 ISZERO PUSH2 0x4B5 JUMPI RETURNDATASIZE PUSH1 0x0 DUP1 RETURNDATACOPY RETURNDATASIZE PUSH1 0x0 REVERT JUMPDEST POP POP POP POP PUSH1 0x40 MLOAD RETURNDATASIZE PUSH1 0x1F NOT PUSH1 0x1F DUP3 ADD AND DUP3 ADD DUP1 PUSH1 0x40 MSTORE POP DUP2 ADD SWAP1 PUSH2 0x4D9 SWAP2 SWAP1 PUSH2 0x1DF9 JUMP JUMPDEST PUSH2 0x518 JUMPI PUSH1 0x40 MLOAD PUSH32 0x8C379A000000000000000000000000000000000000000000000000000000000 DUP2 MSTORE PUSH1 0x4 ADD PUSH2 0x50F SWAP1 PUSH2 0x1E83 JUMP JUMPDEST PUSH1 0x40 MLOAD DUP1 SWAP2 SUB SWAP1 REVERT JUMPDEST POP POP JUMP JUMPDEST PUSH1 0x0 PUSH1 0x3 PUSH1 0x0 DUP4 DUP2 MSTORE PUSH1 0x20 ADD SWAP1 DUP2 MSTORE PUSH1 0x20 ADD PUSH1 0x0 KECCAK256 SWAP1 POP DUP2 DUP2 PUSH1 0x0 ADD SLOAD EQ PUSH2 0x579 JUMPI PUSH1 0x40 MLOAD PUSH32 0x8C379A000000000000000000000000000000000000000000000000000000000 DUP2 MSTORE PUSH1 0x4 ADD PUSH2 0x570 SWAP1 PUSH2 0x1EEF JUMP JUMPDEST PUSH1 0x40 MLOAD DUP1 SWAP2 SUB SWAP1 REVERT JUMPDEST CALLER PUSH20 0xFFFFFFFFFFFFFFFFFFFFFFFFFFFFFFFFFFFFFFFF AND DUP2 PUSH1 0x1 ADD PUSH1 0x0 SWAP1 SLOAD SWAP1 PUSH2 0x100 EXP SWAP1 DIV PUSH20 0xFFFFFFFFFFFFFFFFFFFFFFFFFFFFFFFFFFFFFFFF AND PUSH20 0xFFFFFFFFFFFFFFFFFFFFFFFFFFFFFFFFFFFFFFFF AND EQ PUSH2 0x60B JUMPI PUSH1 0x40 MLOAD PUSH32 0x8C379A000000000000000000000000000000000000000000000000000000000 DUP2 MSTORE PUSH1 0x4 ADD PUSH2 0x602 SWAP1 PUSH2 0x1F5B JUMP JUMPDEST PUSH1 0x40 MLOAD DUP1 SWAP2 SUB SWAP1 REVERT JUMPDEST PUSH1 0x1 PUSH1 0x4 PUSH1 0x0 DUP5 DUP2 MSTORE PUSH1 0x20 ADD SWAP1 DUP2 MSTORE PUSH1 0x20 ADD PUSH1 0x0 KECCAK256 PUSH1 0x0 PUSH2 0x100 EXP DUP2 SLOAD DUP2 PUSH1 0xFF MUL NOT AND SWAP1 DUP4 ISZERO ISZERO MUL OR SWAP1 SSTORE POP DUP1 PUSH1 0x5 ADD SLOAD PUSH1 0x7 PUSH1 0x0 DUP4 PUSH1 0x4 ADD PUSH1 0x0 SWAP1 SLOAD SWAP1 PUSH2 0x100 EXP SWAP1 DIV PUSH20 0xFFFFFFFFFFFFFFFFFFFFFFFFFFFFFFFFFFFFFFFF AND PUSH20 0xFFFFFFFFFFFFFFFFFFFFFFFFFFFFFFFFFFFFFFFF AND PUSH20 0xFFFFFFFFFFFFFFFFFFFFFFFFFFFFFFFFFFFFFFFF AND DUP2 MSTORE PUSH1 0x20 ADD SWAP1 DUP2 MSTORE PUSH1 0x20 ADD PUSH1 0x0 KECCAK256 PUSH1 0x0 DUP4 PUSH1 0x1 ADD PUSH1 0x0 SWAP1 SLOAD SWAP1 PUSH2 0x100 EXP SWAP1 DIV PUSH20 0xFFFFFFFFFFFFFFFFFFFFFFFFFFFFFFFFFFFFFFFF AND PUSH20 0xFFFFFFFFFFFFFFFFFFFFFFFFFFFFFFFFFFFFFFFF AND PUSH20 0xFFFFFFFFFFFFFFFFFFFFFFFFFFFFFFFFFFFFFFFF AND DUP2 MSTORE PUSH1 0x20 ADD SWAP1 DUP2 MSTORE PUSH1 0x20 ADD PUSH1 0x0 KECCAK256 PUSH1 0x0 DUP3 DUP3 SLOAD PUSH2 0x70F SWAP2 SWAP1 PUSH2 0x1F7B JUMP JUMPDEST SWAP3 POP POP DUP2 SWAP1 SSTORE POP PUSH32 0xFC466A139855D3B21F9EB9DFDADD9DFDAF9B58BD400756B26083B7077055E27 DUP2 PUSH1 0x0 ADD SLOAD CALLER DUP4 PUSH1 0x2 ADD PUSH1 0x0 SWAP1 SLOAD SWAP1 PUSH2 0x100 EXP SWAP1 DIV PUSH20 0xFFFFFFFFFFFFFFFFFFFFFFFFFFFFFFFFFFFFFFFF AND DUP5 PUSH1 0x3 ADD SLOAD DUP6 PUSH1 0x4 ADD PUSH1 0x0 SWAP1 SLOAD SWAP1 PUSH2 0x100 EXP SWAP1 DIV PUSH20 0xFFFFFFFFFFFFFFFFFFFFFFFFFFFFFFFFFFFFFFFF AND DUP7 PUSH1 0x5 ADD SLOAD TIMESTAMP PUSH1 0x40 MLOAD PUSH2 0x7A5 SWAP8 SWAP7 SWAP6 SWAP5 SWAP4 SWAP3 SWAP2 SWAP1 PUSH2 0x1ACA JUMP JUMPDEST PUSH1 0x40 MLOAD DUP1 SWAP2 SUB SWAP1 LOG1 POP POP JUMP JUMPDEST PUSH1 0x0 DUP1 SLOAD SWAP1 PUSH2 0x100 EXP SWAP1 DIV PUSH20 0xFFFFFFFFFFFFFFFFFFFFFFFFFFFFFFFFFFFFFFFF AND DUP2 JUMP JUMPDEST PUSH1 0x0 DUP2 GT DUP1 ISZERO PUSH2 0x7E7 JUMPI POP PUSH1 0x2 SLOAD DUP2 GT ISZERO JUMPDEST PUSH2 0x826 JUMPI PUSH1 0x40 MLOAD PUSH32 0x8C379A000000000000000000000000000000000000000000000000000000000 DUP2 MSTORE PUSH1 0x4 ADD PUSH2 0x81D SWAP1 PUSH2 0x1FFB JUMP JUMPDEST PUSH1 0x40 MLOAD DUP1 SWAP2 SUB SWAP1 REVERT JUMPDEST PUSH1 0x5 PUSH1 0x0 DUP3 DUP2 MSTORE PUSH1 0x20 ADD SWAP1 DUP2 MSTORE PUSH1 0x20 ADD PUSH1 0x0 KECCAK256 PUSH1 0x0 SWAP1 SLOAD SWAP1 PUSH2 0x100 EXP SWAP1 DIV PUSH1 0xFF AND ISZERO PUSH2 0x887 JUMPI PUSH1 0x40 MLOAD PUSH32 0x8C379A000000000000000000000000000000000000000000000000000000000 DUP2 MSTORE PUSH1 0x4 ADD PUSH2 0x87E SWAP1 PUSH2 0x208D JUMP JUMPDEST PUSH1 0x40 MLOAD DUP1 SWAP2 SUB SWAP1 REVERT JUMPDEST PUSH1 0x4 PUSH1 0x0 DUP3 DUP2 MSTORE PUSH1 0x20 ADD SWAP1 DUP2 MSTORE PUSH1 0x20 ADD PUSH1 0x0 KECCAK256 PUSH1 0x0 SWAP1 SLOAD SWAP1 PUSH2 0x100 EXP SWAP1 DIV PUSH1 0xFF AND ISZERO PUSH2 0x8E8 JUMPI PUSH1 0x40 MLOAD PUSH32 0x8C379A000000000000000000000000000000000000000000000000000000000 DUP2 MSTORE PUSH1 0x4 ADD PUSH2 0x8DF SWAP1 PUSH2 0x211F JUMP JUMPDEST PUSH1 0x40 MLOAD DUP1 SWAP2 SUB SWAP1 REVERT JUMPDEST PUSH1 0x0 PUSH1 0x3 PUSH1 0x0 DUP4 DUP2 MSTORE PUSH1 0x20 ADD SWAP1 DUP2 MSTORE PUSH1 0x20 ADD PUSH1 0x0 KECCAK256 SWAP1 POP DUP1 PUSH1 0x3 ADD SLOAD PUSH2 0x932 DUP3 PUSH1 0x2 ADD PUSH1 0x0 SWAP1 SLOAD SWAP1 PUSH2 0x100 EXP SWAP1 DIV PUSH20 0xFFFFFFFFFFFFFFFFFFFFFFFFFFFFFFFFFFFFFFFF AND CALLER PUSH2 0x10E3 JUMP JUMPDEST PUSH2 0x93C SWAP2 SWAP1 PUSH2 0x1D1D JUMP JUMPDEST PUSH2 0x96A DUP3 PUSH1 0x2 ADD PUSH1 0x0 SWAP1 SLOAD SWAP1 PUSH2 0x100 EXP SWAP1 DIV PUSH20 0xFFFFFFFFFFFFFFFFFFFFFFFFFFFFFFFFFFFFFFFF AND CALLER PUSH2 0xA6B JUMP JUMPDEST LT ISZERO PUSH2 0x9AB JUMPI PUSH1 0x40 MLOAD PUSH32 0x8C379A000000000000000000000000000000000000000000000000000000000 DUP2 MSTORE PUSH1 0x4 ADD PUSH2 0x9A2 SWAP1 PUSH2 0x218B JUMP JUMPDEST PUSH1 0x40 MLOAD DUP1 SWAP2 SUB SWAP1 REVERT JUMPDEST PUSH2 0xA31 DUP2 PUSH1 0x0 ADD SLOAD DUP3 PUSH1 0x1 ADD PUSH1 0x0 SWAP1 SLOAD SWAP1 PUSH2 0x100 EXP SWAP1 DIV PUSH20 0xFFFFFFFFFFFFFFFFFFFFFFFFFFFFFFFFFFFFFFFF AND DUP4 PUSH1 0x2 ADD PUSH1 0x0 SWAP1 SLOAD SWAP1 PUSH2 0x100 EXP SWAP1 DIV PUSH20 0xFFFFFFFFFFFFFFFFFFFFFFFFFFFFFFFFFFFFFFFF AND DUP5 PUSH1 0x3 ADD SLOAD DUP6 PUSH1 0x4 ADD PUSH1 0x0 SWAP1 SLOAD SWAP1 PUSH2 0x100 EXP SWAP1 DIV PUSH20 0xFFFFFFFFFFFFFFFFFFFFFFFFFFFFFFFFFFFFFFFF AND DUP7 PUSH1 0x5 ADD SLOAD PUSH2 0x147A JUMP JUMPDEST PUSH1 0x1 PUSH1 0x5 PUSH1 0x0 DUP4 PUSH1 0x0 ADD SLOAD DUP2 MSTORE PUSH1 0x20 ADD SWAP1 DUP2 MSTORE PUSH1 0x20 ADD PUSH1 0x0 KECCAK256 PUSH1 0x0 PUSH2 0x100 EXP DUP2 SLOAD DUP2 PUSH1 0xFF MUL NOT AND SWAP1 DUP4 ISZERO ISZERO MUL OR SWAP1 SSTORE POP POP POP JUMP JUMPDEST PUSH1 0x1 SLOAD DUP2 JUMP JUMPDEST PUSH1 0x0 PUSH1 0x6 PUSH1 0x0 DUP5 PUSH20 0xFFFFFFFFFFFFFFFFFFFFFFFFFFFFFFFFFFFFFFFF AND PUSH20 0xFFFFFFFFFFFFFFFFFFFFFFFFFFFFFFFFFFFFFFFF AND DUP2 MSTORE PUSH1 0x20 ADD SWAP1 DUP2 MSTORE PUSH1 0x20 ADD PUSH1 0x0 KECCAK256 PUSH1 0x0 DUP4 PUSH20 0xFFFFFFFFFFFFFFFFFFFFFFFFFFFFFFFFFFFFFFFF AND PUSH20 0xFFFFFFFFFFFFFFFFFFFFFFFFFFFFFFFFFFFFFFFF AND DUP2 MSTORE PUSH1 0x20 ADD SWAP1 DUP2 MSTORE PUSH1 0x20 ADD PUSH1 0x0 KECCAK256 SLOAD SWAP1 POP SWAP3 SWAP2 POP POP JUMP JUMPDEST DUP1 PUSH2 0xAFD DUP4 CALLER PUSH2 0x10E3 JUMP JUMPDEST PUSH2 0xB07 SWAP2 SWAP1 PUSH2 0x1D1D JUMP JUMPDEST PUSH2 0xB11 DUP4 CALLER PUSH2 0xA6B JUMP JUMPDEST LT ISZERO PUSH2 0xB52 JUMPI PUSH1 0x40 MLOAD PUSH32 0x8C379A000000000000000000000000000000000000000000000000000000000 DUP2 MSTORE PUSH1 0x4 ADD PUSH2 0xB49 SWAP1 PUSH2 0x218B JUMP JUMPDEST PUSH1 0x40 MLOAD DUP1 SWAP2 SUB SWAP1 REVERT JUMPDEST PUSH1 0x2 PUSH1 0x0 DUP2 SLOAD DUP1 SWAP3 SWAP2 SWAP1 PUSH2 0xB65 SWAP1 PUSH2 0x21AB JUMP JUMPDEST SWAP2 SWAP1 POP SSTORE POP DUP1 PUSH1 0x7 PUSH1 0x0 DUP5 PUSH20 0xFFFFFFFFFFFFFFFFFFFFFFFFFFFFFFFFFFFFFFFF AND PUSH20 0xFFFFFFFFFFFFFFFFFFFFFFFFFFFFFFFFFFFFFFFF AND DUP2 MSTORE PUSH1 0x20 ADD SWAP1 DUP2 MSTORE PUSH1 0x20 ADD PUSH1 0x0 KECCAK256 PUSH1 0x0 CALLER PUSH20 0xFFFFFFFFFFFFFFFFFFFFFFFFFFFFFFFFFFFFFFFF AND PUSH20 0xFFFFFFFFFFFFFFFFFFFFFFFFFFFFFFFFFFFFFFFF AND DUP2 MSTORE PUSH1 0x20 ADD SWAP1 DUP2 MSTORE PUSH1 0x20 ADD PUSH1 0x0 KECCAK256 PUSH1 0x0 DUP3 DUP3 SLOAD PUSH2 0xBF6 SWAP2 SWAP1 PUSH2 0x1D1D JUMP JUMPDEST SWAP3 POP POP DUP2 SWAP1 SSTORE POP PUSH1 0x40 MLOAD DUP1 PUSH1 0xE0 ADD PUSH1 0x40 MSTORE DUP1 PUSH1 0x2 SLOAD DUP2 MSTORE PUSH1 0x20 ADD CALLER PUSH20 0xFFFFFFFFFFFFFFFFFFFFFFFFFFFFFFFFFFFFFFFF AND DUP2 MSTORE PUSH1 0x20 ADD DUP6 PUSH20 0xFFFFFFFFFFFFFFFFFFFFFFFFFFFFFFFFFFFFFFFF AND DUP2 MSTORE PUSH1 0x20 ADD DUP5 DUP2 MSTORE PUSH1 0x20 ADD DUP4 PUSH20 0xFFFFFFFFFFFFFFFFFFFFFFFFFFFFFFFFFFFFFFFF AND DUP2 MSTORE PUSH1 0x20 ADD DUP3 DUP2 MSTORE PUSH1 0x20 ADD TIMESTAMP DUP2 MSTORE POP PUSH1 0x3 PUSH1 0x0 PUSH1 0x2 SLOAD DUP2 MSTORE PUSH1 0x20 ADD SWAP1 DUP2 MSTORE PUSH1 0x20 ADD PUSH1 0x0 KECCAK256 PUSH1 0x0 DUP3 ADD MLOAD DUP2 PUSH1 0x0 ADD SSTORE PUSH1 0x20 DUP3 ADD MLOAD DUP2 PUSH1 0x1 ADD PUSH1 0x0 PUSH2 0x100 EXP DUP2 SLOAD DUP2 PUSH20 0xFFFFFFFFFFFFFFFFFFFFFFFFFFFFFFFFFFFFFFFF MUL NOT AND SWAP1 DUP4 PUSH20 0xFFFFFFFFFFFFFFFFFFFFFFFFFFFFFFFFFFFFFFFF AND MUL OR SWAP1 SSTORE POP PUSH1 0x40 DUP3 ADD MLOAD DUP2 PUSH1 0x2 ADD PUSH1 0x0 PUSH2 0x100 EXP DUP2 SLOAD DUP2 PUSH20 0xFFFFFFFFFFFFFFFFFFFFFFFFFFFFFFFFFFFFFFFF MUL NOT AND SWAP1 DUP4 PUSH20 0xFFFFFFFFFFFFFFFFFFFFFFFFFFFFFFFFFFFFFFFF AND MUL OR SWAP1 SSTORE POP PUSH1 0x60 DUP3 ADD MLOAD DUP2 PUSH1 0x3 ADD SSTORE PUSH1 0x80 DUP3 ADD MLOAD DUP2 PUSH1 0x4 ADD PUSH1 0x0 PUSH2 0x100 EXP DUP2 SLOAD DUP2 PUSH20 0xFFFFFFFFFFFFFFFFFFFFFFFFFFFFFFFFFFFFFFFF MUL NOT AND SWAP1 DUP4 PUSH20 0xFFFFFFFFFFFFFFFFFFFFFFFFFFFFFFFFFFFFFFFF AND MUL OR SWAP1 SSTORE POP PUSH1 0xA0 DUP3 ADD MLOAD DUP2 PUSH1 0x5 ADD SSTORE PUSH1 0xC0 DUP3 ADD MLOAD DUP2 PUSH1 0x6 ADD SSTORE SWAP1 POP POP PUSH32 0xF4E94E11847DD5A076A1F8BC24EC98DFA58292DE438D62656742B833FE022EC0 PUSH1 0x2 SLOAD CALLER DUP7 DUP7 DUP7 DUP7 TIMESTAMP PUSH1 0x40 MLOAD PUSH2 0xDC6 SWAP8 SWAP7 SWAP6 SWAP5 SWAP4 SWAP3 SWAP2 SWAP1 PUSH2 0x1ACA JUMP JUMPDEST PUSH1 0x40 MLOAD DUP1 SWAP2 SUB SWAP1 LOG1 POP POP POP POP JUMP JUMPDEST DUP1 PUSH2 0xDDF DUP4 CALLER PUSH2 0x10E3 JUMP JUMPDEST PUSH2 0xDE9 DUP5 CALLER PUSH2 0xA6B JUMP JUMPDEST PUSH2 0xDF3 SWAP2 SWAP1 PUSH2 0x1F7B JUMP JUMPDEST LT ISZERO PUSH2 0xE34 JUMPI PUSH1 0x40 MLOAD PUSH32 0x8C379A000000000000000000000000000000000000000000000000000000000 DUP2 MSTORE PUSH1 0x4 ADD PUSH2 0xE2B SWAP1 PUSH2 0x223F JUMP JUMPDEST PUSH1 0x40 MLOAD DUP1 SWAP2 SUB SWAP1 REVERT JUMPDEST DUP1 PUSH1 0x6 PUSH1 0x0 DUP5 PUSH20 0xFFFFFFFFFFFFFFFFFFFFFFFFFFFFFFFFFFFFFFFF AND PUSH20 0xFFFFFFFFFFFFFFFFFFFFFFFFFFFFFFFFFFFFFFFF AND DUP2 MSTORE PUSH1 0x20 ADD SWAP1 DUP2 MSTORE PUSH1 0x20 ADD PUSH1 0x0 KECCAK256 PUSH1 0x0 CALLER PUSH20 0xFFFFFFFFFFFFFFFFFFFFFFFFFFFFFFFFFFFFFFFF AND PUSH20 0xFFFFFFFFFFFFFFFFFFFFFFFFFFFFFFFFFFFFFFFF AND DUP2 MSTORE PUSH1 0x20 ADD SWAP1 DUP2 MSTORE PUSH1 0x20 ADD PUSH1 0x0 KECCAK256 PUSH1 0x0 DUP3 DUP3 SLOAD PUSH2 0xEC0 SWAP2 SWAP1 PUSH2 0x1F7B JUMP JUMPDEST SWAP3 POP POP DUP2 SWAP1 SSTORE POP PUSH32 0x3C076FF0B3DC25856576E4C4AB3876D78D1EA679D89DA4CD210A67F227922B3B DUP3 CALLER DUP4 PUSH1 0x6 PUSH1 0x0 DUP8 PUSH20 0xFFFFFFFFFFFFFFFFFFFFFFFFFFFFFFFFFFFFFFFF AND PUSH20 0xFFFFFFFFFFFFFFFFFFFFFFFFFFFFFFFFFFFFFFFF AND DUP2 MSTORE PUSH1 0x20 ADD SWAP1 DUP2 MSTORE PUSH1 0x20 ADD PUSH1 0x0 KECCAK256 PUSH1 0x0 CALLER PUSH20 0xFFFFFFFFFFFFFFFFFFFFFFFFFFFFFFFFFFFFFFFF AND PUSH20 0xFFFFFFFFFFFFFFFFFFFFFFFFFFFFFFFFFFFFFFFF AND DUP2 MSTORE PUSH1 0x20 ADD SWAP1 DUP2 MSTORE PUSH1 0x20 ADD PUSH1 0x0 KECCAK256 SLOAD PUSH1 0x40 MLOAD PUSH2 0xF78 SWAP5 SWAP4 SWAP3 SWAP2 SWAP1 PUSH2 0x1D51 JUMP JUMPDEST PUSH1 0x40 MLOAD DUP1 SWAP2 SUB SWAP1 LOG1 DUP2 PUSH20 0xFFFFFFFFFFFFFFFFFFFFFFFFFFFFFFFFFFFFFFFF AND PUSH4 0xA9059CBB CALLER DUP4 PUSH1 0x40 MLOAD DUP4 PUSH4 0xFFFFFFFF AND PUSH1 0xE0 SHL DUP2 MSTORE PUSH1 0x4 ADD PUSH2 0xFBB SWAP3 SWAP2 SWAP1 PUSH2 0x225F JUMP JUMPDEST PUSH1 0x20 PUSH1 0x40 MLOAD DUP1 DUP4 SUB DUP2 PUSH1 0x0 DUP8 GAS CALL ISZERO DUP1 ISZERO PUSH2 0xFDA JUMPI RETURNDATASIZE PUSH1 0x0 DUP1 RETURNDATACOPY RETURNDATASIZE PUSH1 0x0 REVERT JUMPDEST POP POP POP POP PUSH1 0x40 MLOAD RETURNDATASIZE PUSH1 0x1F NOT PUSH1 0x1F DUP3 ADD AND DUP3 ADD DUP1 PUSH1 0x40 MSTORE POP DUP2 ADD SWAP1 PUSH2 0xFFE SWAP2 SWAP1 PUSH2 0x1DF9 JUMP JUMPDEST PUSH2 0x103D JUMPI PUSH1 0x40 MLOAD PUSH32 0x8C379A000000000000000000000000000000000000000000000000000000000 DUP2 MSTORE PUSH1 0x4 ADD PUSH2 0x1034 SWAP1 PUSH2 0x1E83 JUMP JUMPDEST PUSH1 0x40 MLOAD DUP1 SWAP2 SUB SWAP1 REVERT JUMPDEST POP POP JUMP JUMPDEST PUSH1 0x3 PUSH1 0x20 MSTORE DUP1 PUSH1 0x0 MSTORE PUSH1 0x40 PUSH1 0x0 KECCAK256 PUSH1 0x0 SWAP2 POP SWAP1 POP DUP1 PUSH1 0x0 ADD SLOAD SWAP1 DUP1 PUSH1 0x1 ADD PUSH1 0x0 SWAP1 SLOAD SWAP1 PUSH2 0x100 EXP SWAP1 DIV PUSH20 0xFFFFFFFFFFFFFFFFFFFFFFFFFFFFFFFFFFFFFFFF AND SWAP1 DUP1 PUSH1 0x2 ADD PUSH1 0x0 SWAP1 SLOAD SWAP1 PUSH2 0x100 EXP SWAP1 DIV PUSH20 0xFFFFFFFFFFFFFFFFFFFFFFFFFFFFFFFFFFFFFFFF AND SWAP1 DUP1 PUSH1 0x3 ADD SLOAD SWAP1 DUP1 PUSH1 0x4 ADD PUSH1 0x0 SWAP1 SLOAD SWAP1 PUSH2 0x100 EXP SWAP1 DIV PUSH20 0xFFFFFFFFFFFFFFFFFFFFFFFFFFFFFFFFFFFFFFFF AND SWAP1 DUP1 PUSH1 0x5 ADD SLOAD SWAP1 DUP1 PUSH1 0x6 ADD SLOAD SWAP1 POP DUP8 JUMP JUMPDEST PUSH1 0x0 PUSH1 0x7 PUSH1 0x0 DUP5 PUSH20 0xFFFFFFFFFFFFFFFFFFFFFFFFFFFFFFFFFFFFFFFF AND PUSH20 0xFFFFFFFFFFFFFFFFFFFFFFFFFFFFFFFFFFFFFFFF AND DUP2 MSTORE PUSH1 0x20 ADD SWAP1 DUP2 MSTORE PUSH1 0x20 ADD PUSH1 0x0 KECCAK256 PUSH1 0x0 DUP4 PUSH20 0xFFFFFFFFFFFFFFFFFFFFFFFFFFFFFFFFFFFFFFFF AND PUSH20 0xFFFFFFFFFFFFFFFFFFFFFFFFFFFFFFFFFFFFFFFF AND DUP2 MSTORE PUSH1 0x20 ADD SWAP1 DUP2 MSTORE PUSH1 0x20 ADD PUSH1 0x0 KECCAK256 SLOAD SWAP1 POP SWAP3 SWAP2 POP POP JUMP JUMPDEST PUSH1 0x5 PUSH1 0x20 MSTORE DUP1 PUSH1 0x0 MSTORE PUSH1 0x40 PUSH1 0x0 KECCAK256 PUSH1 0x0 SWAP2 POP SLOAD SWAP1 PUSH2 0x100 EXP SWAP1 DIV PUSH1 0xFF AND DUP2 JUMP JUMPDEST PUSH1 0x0 DUP4 PUSH20 0xFFFFFFFFFFFFFFFFFFFFFFFFFFFFFFFFFFFFFFFF AND PUSH4 0x70A08231 ADDRESS PUSH1 0x40 MLOAD DUP3 PUSH4 0xFFFFFFFF AND PUSH1 0xE0 SHL DUP2 MSTORE PUSH1 0x4 ADD PUSH2 0x11C5 SWAP2 SWAP1 PUSH2 0x1A08 JUMP JUMPDEST PUSH1 0x20 PUSH1 0x40 MLOAD DUP1 DUP4 SUB DUP2 DUP7 GAS STATICCALL ISZERO DUP1 ISZERO PUSH2 0x11E2 JUMPI RETURNDATASIZE PUSH1 0x0 DUP1 RETURNDATACOPY RETURNDATASIZE PUSH1 0x0 REVERT JUMPDEST POP POP POP POP PUSH1 0x40 MLOAD RETURNDATASIZE PUSH1 0x1F NOT PUSH1 0x1F DUP3 ADD AND DUP3 ADD DUP1 PUSH1 0x40 MSTORE POP DUP2 ADD SWAP1 PUSH2 0x1206 SWAP2 SWAP1 PUSH2 0x229D JUMP JUMPDEST SWAP1 POP PUSH1 0x0 DUP2 GT PUSH2 0x124B JUMPI PUSH1 0x40 MLOAD PUSH32 0x8C379A000000000000000000000000000000000000000000000000000000000 DUP2 MSTORE PUSH1 0x4 ADD PUSH2 0x1242 SWAP1 PUSH2 0x233C JUMP JUMPDEST PUSH1 0x40 MLOAD DUP1 SWAP2 SUB SWAP1 REVERT JUMPDEST DUP4 PUSH20 0xFFFFFFFFFFFFFFFFFFFFFFFFFFFFFFFFFFFFFFFF AND PUSH4 0xA9059CBB CALLER DUP6 PUSH1 0x40 MLOAD DUP4 PUSH4 0xFFFFFFFF AND PUSH1 0xE0 SHL DUP2 MSTORE PUSH1 0x4 ADD PUSH2 0x1286 SWAP3 SWAP2 SWAP1 PUSH2 0x225F JUMP JUMPDEST PUSH1 0x20 PUSH1 0x40 MLOAD DUP1 DUP4 SUB DUP2 PUSH1 0x0 DUP8 GAS CALL ISZERO DUP1 ISZERO PUSH2 0x12A5 JUMPI RETURNDATASIZE PUSH1 0x0 DUP1 RETURNDATACOPY RETURNDATASIZE PUSH1 0x0 REVERT JUMPDEST POP POP POP POP PUSH1 0x40 MLOAD RETURNDATASIZE PUSH1 0x1F NOT PUSH1 0x1F DUP3 ADD AND DUP3 ADD DUP1 PUSH1 0x40 MSTORE POP DUP2 ADD SWAP1 PUSH2 0x12C9 SWAP2 SWAP1 PUSH2 0x1DF9 JUMP JUMPDEST PUSH2 0x1308 JUMPI PUSH1 0x40 MLOAD PUSH32 0x8C379A000000000000000000000000000000000000000000000000000000000 DUP2 MSTORE PUSH1 0x4 ADD PUSH2 0x12FF SWAP1 PUSH2 0x23CE JUMP JUMPDEST PUSH1 0x40 MLOAD DUP1 SWAP2 SUB SWAP1 REVERT JUMPDEST CALLER PUSH20 0xFFFFFFFFFFFFFFFFFFFFFFFFFFFFFFFFFFFFFFFF AND PUSH4 0x958FA280 DUP6 DUP6 DUP6 PUSH1 0x40 MLOAD DUP5 PUSH4 0xFFFFFFFF AND PUSH1 0xE0 SHL DUP2 MSTORE PUSH1 0x4 ADD PUSH2 0x1345 SWAP4 SWAP3 SWAP2 SWAP1 PUSH2 0x246D JUMP JUMPDEST PUSH1 0x0 PUSH1 0x40 MLOAD DUP1 DUP4 SUB DUP2 PUSH1 0x0 DUP8 DUP1 EXTCODESIZE ISZERO DUP1 ISZERO PUSH2 0x135F JUMPI PUSH1 0x0 DUP1 REVERT JUMPDEST POP GAS CALL ISZERO DUP1 ISZERO PUSH2 0x1373 JUMPI RETURNDATASIZE PUSH1 0x0 DUP1 RETURNDATACOPY RETURNDATASIZE PUSH1 0x0 REVERT JUMPDEST POP POP POP POP PUSH1 0x0 DUP5 PUSH20 0xFFFFFFFFFFFFFFFFFFFFFFFFFFFFFFFFFFFFFFFF AND PUSH4 0x70A08231 ADDRESS PUSH1 0x40 MLOAD DUP3 PUSH4 0xFFFFFFFF AND PUSH1 0xE0 SHL DUP2 MSTORE PUSH1 0x4 ADD PUSH2 0x13B2 SWAP2 SWAP1 PUSH2 0x1A08 JUMP JUMPDEST PUSH1 0x20 PUSH1 0x40 MLOAD DUP1 DUP4 SUB DUP2 DUP7 GAS STATICCALL ISZERO DUP1 ISZERO PUSH2 0x13CF JUMPI RETURNDATASIZE PUSH1 0x0 DUP1 RETURNDATACOPY RETURNDATASIZE PUSH1 0x0 REVERT JUMPDEST POP POP POP POP PUSH1 0x40 MLOAD RETURNDATASIZE PUSH1 0x1F NOT PUSH1 0x1F DUP3 ADD AND DUP3 ADD DUP1 PUSH1 0x40 MSTORE POP DUP2 ADD SWAP1 PUSH2 0x13F3 SWAP2 SWAP1 PUSH2 0x229D JUMP JUMPDEST SWAP1 POP DUP2 DUP2 LT ISZERO PUSH2 0x1438 JUMPI PUSH1 0x40 MLOAD PUSH32 0x8C379A000000000000000000000000000000000000000000000000000000000 DUP2 MSTORE PUSH1 0x4 ADD PUSH2 0x142F SWAP1 PUSH2 0x251D JUMP JUMPDEST PUSH1 0x40 MLOAD DUP1 SWAP2 SUB SWAP1 REVERT JUMPDEST PUSH32 0x31AAAD38F00845A242D16AE90D7BD72FC68F0E22581470F9DC0DE241210C2886 DUP6 DUP6 TIMESTAMP PUSH1 0x40 MLOAD PUSH2 0x146B SWAP4 SWAP3 SWAP2 SWAP1 PUSH2 0x253D JUMP JUMPDEST PUSH1 0x40 MLOAD DUP1 SWAP2 SUB SWAP1 LOG1 POP POP POP POP POP JUMP JUMPDEST PUSH1 0x0 PUSH1 0x64 PUSH1 0x1 SLOAD DUP6 PUSH2 0x148C SWAP2 SWAP1 PUSH2 0x2574 JUMP JUMPDEST PUSH2 0x1496 SWAP2 SWAP1 PUSH2 0x25E5 JUMP JUMPDEST SWAP1 POP DUP1 DUP5 PUSH2 0x14A4 SWAP2 SWAP1 PUSH2 0x1D1D JUMP JUMPDEST PUSH1 0x6 PUSH1 0x0 DUP8 PUSH20 0xFFFFFFFFFFFFFFFFFFFFFFFFFFFFFFFFFFFFFFFF AND PUSH20 0xFFFFFFFFFFFFFFFFFFFFFFFFFFFFFFFFFFFFFFFF AND DUP2 MSTORE PUSH1 0x20 ADD SWAP1 DUP2 MSTORE PUSH1 0x20 ADD PUSH1 0x0 KECCAK256 PUSH1 0x0 CALLER PUSH20 0xFFFFFFFFFFFFFFFFFFFFFFFFFFFFFFFFFFFFFFFF AND PUSH20 0xFFFFFFFFFFFFFFFFFFFFFFFFFFFFFFFFFFFFFFFF AND DUP2 MSTORE PUSH1 0x20 ADD SWAP1 DUP2 MSTORE PUSH1 0x20 ADD PUSH1 0x0 KECCAK256 PUSH1 0x0 DUP3 DUP3 SLOAD PUSH2 0x152F SWAP2 SWAP1 PUSH2 0x1F7B JUMP JUMPDEST SWAP3 POP POP DUP2 SWAP1 SSTORE POP DUP4 PUSH1 0x6 PUSH1 0x0 DUP8 PUSH20 0xFFFFFFFFFFFFFFFFFFFFFFFFFFFFFFFFFFFFFFFF AND PUSH20 0xFFFFFFFFFFFFFFFFFFFFFFFFFFFFFFFFFFFFFFFF AND DUP2 MSTORE PUSH1 0x20 ADD SWAP1 DUP2 MSTORE PUSH1 0x20 ADD PUSH1 0x0 KECCAK256 PUSH1 0x0 DUP9 PUSH20 0xFFFFFFFFFFFFFFFFFFFFFFFFFFFFFFFFFFFFFFFF AND PUSH20 0xFFFFFFFFFFFFFFFFFFFFFFFFFFFFFFFFFFFFFFFF AND DUP2 MSTORE PUSH1 0x20 ADD SWAP1 DUP2 MSTORE PUSH1 0x20 ADD PUSH1 0x0 KECCAK256 PUSH1 0x0 DUP3 DUP3 SLOAD PUSH2 0x15C2 SWAP2 SWAP1 PUSH2 0x1D1D JUMP JUMPDEST SWAP3 POP POP DUP2 SWAP1 SSTORE POP DUP1 PUSH1 0x6 PUSH1 0x0 DUP8 PUSH20 0xFFFFFFFFFFFFFFFFFFFFFFFFFFFFFFFFFFFFFFFF AND PUSH20 0xFFFFFFFFFFFFFFFFFFFFFFFFFFFFFFFFFFFFFFFF AND DUP2 MSTORE PUSH1 0x20 ADD SWAP1 DUP2 MSTORE PUSH1 0x20 ADD PUSH1 0x0 KECCAK256 PUSH1 0x0 DUP1 PUSH1 0x0 SWAP1 SLOAD SWAP1 PUSH2 0x100 EXP SWAP1 DIV PUSH20 0xFFFFFFFFFFFFFFFFFFFFFFFFFFFFFFFFFFFFFFFF AND PUSH20 0xFFFFFFFFFFFFFFFFFFFFFFFFFFFFFFFFFFFFFFFF AND PUSH20 0xFFFFFFFFFFFFFFFFFFFFFFFFFFFFFFFFFFFFFFFF AND DUP2 MSTORE PUSH1 0x20 ADD SWAP1 DUP2 MSTORE PUSH1 0x20 ADD PUSH1 0x0 KECCAK256 PUSH1 0x0 DUP3 DUP3 SLOAD PUSH2 0x1676 SWAP2 SWAP1 PUSH2 0x1D1D JUMP JUMPDEST SWAP3 POP POP DUP2 SWAP1 SSTORE POP DUP2 PUSH1 0x6 PUSH1 0x0 DUP6 PUSH20 0xFFFFFFFFFFFFFFFFFFFFFFFFFFFFFFFFFFFFFFFF AND PUSH20 0xFFFFFFFFFFFFFFFFFFFFFFFFFFFFFFFFFFFFFFFF AND DUP2 MSTORE PUSH1 0x20 ADD SWAP1 DUP2 MSTORE PUSH1 0x20 ADD PUSH1 0x0 KECCAK256 PUSH1 0x0 DUP9 PUSH20 0xFFFFFFFFFFFFFFFFFFFFFFFFFFFFFFFFFFFFFFFF AND PUSH20 0xFFFFFFFFFFFFFFFFFFFFFFFFFFFFFFFFFFFFFFFF AND DUP2 MSTORE PUSH1 0x20 ADD SWAP1 DUP2 MSTORE PUSH1 0x20 ADD PUSH1 0x0 KECCAK256 PUSH1 0x0 DUP3 DUP3 SLOAD PUSH2 0x1709 SWAP2 SWAP1 PUSH2 0x1F7B JUMP JUMPDEST SWAP3 POP POP DUP2 SWAP1 SSTORE POP DUP2 PUSH1 0x6 PUSH1 0x0 DUP6 PUSH20 0xFFFFFFFFFFFFFFFFFFFFFFFFFFFFFFFFFFFFFFFF AND PUSH20 0xFFFFFFFFFFFFFFFFFFFFFFFFFFFFFFFFFFFFFFFF AND DUP2 MSTORE PUSH1 0x20 ADD SWAP1 DUP2 MSTORE PUSH1 0x20 ADD PUSH1 0x0 KECCAK256 PUSH1 0x0 CALLER PUSH20 0xFFFFFFFFFFFFFFFFFFFFFFFFFFFFFFFFFFFFFFFF AND PUSH20 0xFFFFFFFFFFFFFFFFFFFFFFFFFFFFFFFFFFFFFFFF AND DUP2 MSTORE PUSH1 0x20 ADD SWAP1 DUP2 MSTORE PUSH1 0x20 ADD PUSH1 0x0 KECCAK256 PUSH1 0x0 DUP3 DUP3 SLOAD PUSH2 0x179C SWAP2 SWAP1 PUSH2 0x1D1D JUMP JUMPDEST SWAP3 POP POP DUP2 SWAP1 SSTORE POP DUP2 PUSH1 0x7 PUSH1 0x0 DUP6 PUSH20 0xFFFFFFFFFFFFFFFFFFFFFFFFFFFFFFFFFFFFFFFF AND PUSH20 0xFFFFFFFFFFFFFFFFFFFFFFFFFFFFFFFFFFFFFFFF AND DUP2 MSTORE PUSH1 0x20 ADD SWAP1 DUP2 MSTORE PUSH1 0x20 ADD PUSH1 0x0 KECCAK256 PUSH1 0x0 DUP9 PUSH20 0xFFFFFFFFFFFFFFFFFFFFFFFFFFFFFFFFFFFFFFFF AND PUSH20 0xFFFFFFFFFFFFFFFFFFFFFFFFFFFFFFFFFFFFFFFF AND DUP2 MSTORE PUSH1 0x20 ADD SWAP1 DUP2 MSTORE PUSH1 0x20 ADD PUSH1 0x0 KECCAK256 PUSH1 0x0 DUP3 DUP3 SLOAD PUSH2 0x182F SWAP2 SWAP1 PUSH2 0x1F7B JUMP JUMPDEST SWAP3 POP POP DUP2 SWAP1 SSTORE POP PUSH32 0x3F18C6D086D994230A01522D5756546E531BAF4669EC8AEA8CB68180B184C384 DUP8 CALLER DUP8 DUP8 DUP8 DUP8 DUP13 TIMESTAMP PUSH1 0x40 MLOAD PUSH2 0x1873 SWAP9 SWAP8 SWAP7 SWAP6 SWAP5 SWAP4 SWAP3 SWAP2 SWAP1 PUSH2 0x2616 JUMP JUMPDEST PUSH1 0x40 MLOAD DUP1 SWAP2 SUB SWAP1 LOG1 POP POP POP POP POP POP POP JUMP JUMPDEST PUSH1 0x0 PUSH1 0x40 MLOAD SWAP1 POP SWAP1 JUMP JUMPDEST PUSH1 0x0 DUP1 REVERT JUMPDEST PUSH1 0x0 DUP1 REVERT JUMPDEST PUSH1 0x0 DUP2 SWAP1 POP SWAP2 SWAP1 POP JUMP JUMPDEST PUSH2 0x18AB DUP2 PUSH2 0x1898 JUMP JUMPDEST DUP2 EQ PUSH2 0x18B6 JUMPI PUSH1 0x0 DUP1 REVERT JUMPDEST POP JUMP JUMPDEST PUSH1 0x0 DUP2 CALLDATALOAD SWAP1 POP PUSH2 0x18C8 DUP2 PUSH2 0x18A2 JUMP JUMPDEST SWAP3 SWAP2 POP POP JUMP JUMPDEST PUSH1 0x0 PUSH1 0x20 DUP3 DUP5 SUB SLT ISZERO PUSH2 0x18E4 JUMPI PUSH2 0x18E3 PUSH2 0x188E JUMP JUMPDEST JUMPDEST PUSH1 0x0 PUSH2 0x18F2 DUP5 DUP3 DUP6 ADD PUSH2 0x18B9 JUMP JUMPDEST SWAP2 POP POP SWAP3 SWAP2 POP POP JUMP JUMPDEST PUSH1 0x0 DUP2 ISZERO ISZERO SWAP1 POP SWAP2 SWAP1 POP JUMP JUMPDEST PUSH2 0x1910 DUP2 PUSH2 0x18FB JUMP JUMPDEST DUP3 MSTORE POP POP JUMP JUMPDEST PUSH1 0x0 PUSH1 0x20 DUP3 ADD SWAP1 POP PUSH2 0x192B PUSH1 0x0 DUP4 ADD DUP5 PUSH2 0x1907 JUMP JUMPDEST SWAP3 SWAP2 POP POP JUMP JUMPDEST PUSH2 0x193A DUP2 PUSH2 0x1898 JUMP JUMPDEST DUP3 MSTORE POP POP JUMP JUMPDEST PUSH1 0x0 PUSH1 0x20 DUP3 ADD SWAP1 POP PUSH2 0x1955 PUSH1 0x0 DUP4 ADD DUP5 PUSH2 0x1931 JUMP JUMPDEST SWAP3 SWAP2 POP POP JUMP JUMPDEST PUSH1 0x0 PUSH20 0xFFFFFFFFFFFFFFFFFFFFFFFFFFFFFFFFFFFFFFFF DUP3 AND SWAP1 POP SWAP2 SWAP1 POP JUMP JUMPDEST PUSH1 0x0 PUSH2 0x1986 DUP3 PUSH2 0x195B JUMP JUMPDEST SWAP1 POP SWAP2 SWAP1 POP JUMP JUMPDEST PUSH2 0x1996 DUP2 PUSH2 0x197B JUMP JUMPDEST DUP2 EQ PUSH2 0x19A1 JUMPI PUSH1 0x0 DUP1 REVERT JUMPDEST POP JUMP JUMPDEST PUSH1 0x0 DUP2 CALLDATALOAD SWAP1 POP PUSH2 0x19B3 DUP2 PUSH2 0x198D JUMP JUMPDEST SWAP3 SWAP2 POP POP JUMP JUMPDEST PUSH1 0x0 DUP1 PUSH1 0x40 DUP4 DUP6 SUB SLT ISZERO PUSH2 0x19D0 JUMPI PUSH2 0x19CF PUSH2 0x188E JUMP JUMPDEST JUMPDEST PUSH1 0x0 PUSH2 0x19DE DUP6 DUP3 DUP7 ADD PUSH2 0x19A4 JUMP JUMPDEST SWAP3 POP POP PUSH1 0x20 PUSH2 0x19EF DUP6 DUP3 DUP7 ADD PUSH2 0x18B9 JUMP JUMPDEST SWAP2 POP POP SWAP3 POP SWAP3 SWAP1 POP JUMP JUMPDEST PUSH2 0x1A02 DUP2 PUSH2 0x197B JUMP JUMPDEST DUP3 MSTORE POP POP JUMP JUMPDEST PUSH1 0x0 PUSH1 0x20 DUP3 ADD SWAP1 POP PUSH2 0x1A1D PUSH1 0x0 DUP4 ADD DUP5 PUSH2 0x19F9 JUMP JUMPDEST SWAP3 SWAP2 POP POP JUMP JUMPDEST PUSH1 0x0 DUP1 PUSH1 0x40 DUP4 DUP6 SUB SLT ISZERO PUSH2 0x1A3A JUMPI PUSH2 0x1A39 PUSH2 0x188E JUMP JUMPDEST JUMPDEST PUSH1 0x0 PUSH2 0x1A48 DUP6 DUP3 DUP7 ADD PUSH2 0x19A4 JUMP JUMPDEST SWAP3 POP POP PUSH1 0x20 PUSH2 0x1A59 DUP6 DUP3 DUP7 ADD PUSH2 0x19A4 JUMP JUMPDEST SWAP2 POP POP SWAP3 POP SWAP3 SWAP1 POP JUMP JUMPDEST PUSH1 0x0 DUP1 PUSH1 0x0 DUP1 PUSH1 0x80 DUP6 DUP8 SUB SLT ISZERO PUSH2 0x1A7D JUMPI PUSH2 0x1A7C PUSH2 0x188E JUMP JUMPDEST JUMPDEST PUSH1 0x0 PUSH2 0x1A8B DUP8 DUP3 DUP9 ADD PUSH2 0x19A4 JUMP JUMPDEST SWAP5 POP POP PUSH1 0x20 PUSH2 0x1A9C DUP8 DUP3 DUP9 ADD PUSH2 0x18B9 JUMP JUMPDEST SWAP4 POP POP PUSH1 0x40 PUSH2 0x1AAD DUP8 DUP3 DUP9 ADD PUSH2 0x19A4 JUMP JUMPDEST SWAP3 POP POP PUSH1 0x60 PUSH2 0x1ABE DUP8 DUP3 DUP9 ADD PUSH2 0x18B9 JUMP JUMPDEST SWAP2 POP POP SWAP3 SWAP6 SWAP2 SWAP5 POP SWAP3 POP JUMP JUMPDEST PUSH1 0x0 PUSH1 0xE0 DUP3 ADD SWAP1 POP PUSH2 0x1ADF PUSH1 0x0 DUP4 ADD DUP11 PUSH2 0x1931 JUMP JUMPDEST PUSH2 0x1AEC PUSH1 0x20 DUP4 ADD DUP10 PUSH2 0x19F9 JUMP JUMPDEST PUSH2 0x1AF9 PUSH1 0x40 DUP4 ADD DUP9 PUSH2 0x19F9 JUMP JUMPDEST PUSH2 0x1B06 PUSH1 0x60 DUP4 ADD DUP8 PUSH2 0x1931 JUMP JUMPDEST PUSH2 0x1B13 PUSH1 0x80 DUP4 ADD DUP7 PUSH2 0x19F9 JUMP JUMPDEST PUSH2 0x1B20 PUSH1 0xA0 DUP4 ADD DUP6 PUSH2 0x1931 JUMP JUMPDEST PUSH2 0x1B2D PUSH1 0xC0 DUP4 ADD DUP5 PUSH2 0x1931 JUMP JUMPDEST SWAP9 SWAP8 POP POP POP POP POP POP POP POP JUMP JUMPDEST PUSH1 0x0 DUP1 REVERT JUMPDEST PUSH1 0x0 DUP1 REVERT JUMPDEST PUSH1 0x0 PUSH1 0x1F NOT PUSH1 0x1F DUP4 ADD AND SWAP1 POP SWAP2 SWAP1 POP JUMP JUMPDEST PUSH32 0x4E487B7100000000000000000000000000000000000000000000000000000000 PUSH1 0x0 MSTORE PUSH1 0x41 PUSH1 0x4 MSTORE PUSH1 0x24 PUSH1 0x0 REVERT JUMPDEST PUSH2 0x1B8C DUP3 PUSH2 0x1B43 JUMP JUMPDEST DUP2 ADD DUP2 DUP2 LT PUSH8 0xFFFFFFFFFFFFFFFF DUP3 GT OR ISZERO PUSH2 0x1BAB JUMPI PUSH2 0x1BAA PUSH2 0x1B54 JUMP JUMPDEST JUMPDEST DUP1 PUSH1 0x40 MSTORE POP POP POP JUMP JUMPDEST PUSH1 0x0 PUSH2 0x1BBE PUSH2 0x1884 JUMP JUMPDEST SWAP1 POP PUSH2 0x1BCA DUP3 DUP3 PUSH2 0x1B83 JUMP JUMPDEST SWAP2 SWAP1 POP JUMP JUMPDEST PUSH1 0x0 PUSH8 0xFFFFFFFFFFFFFFFF DUP3 GT ISZERO PUSH2 0x1BEA JUMPI PUSH2 0x1BE9 PUSH2 0x1B54 JUMP JUMPDEST JUMPDEST PUSH2 0x1BF3 DUP3 PUSH2 0x1B43 JUMP JUMPDEST SWAP1 POP PUSH1 0x20 DUP2 ADD SWAP1 POP SWAP2 SWAP1 POP JUMP JUMPDEST DUP3 DUP2 DUP4 CALLDATACOPY PUSH1 0x0 DUP4 DUP4 ADD MSTORE POP POP POP JUMP JUMPDEST PUSH1 0x0 PUSH2 0x1C22 PUSH2 0x1C1D DUP5 PUSH2 0x1BCF JUMP JUMPDEST PUSH2 0x1BB4 JUMP JUMPDEST SWAP1 POP DUP3 DUP2 MSTORE PUSH1 0x20 DUP2 ADD DUP5 DUP5 DUP5 ADD GT ISZERO PUSH2 0x1C3E JUMPI PUSH2 0x1C3D PUSH2 0x1B3E JUMP JUMPDEST JUMPDEST PUSH2 0x1C49 DUP5 DUP3 DUP6 PUSH2 0x1C00 JUMP JUMPDEST POP SWAP4 SWAP3 POP POP POP JUMP JUMPDEST PUSH1 0x0 DUP3 PUSH1 0x1F DUP4 ADD SLT PUSH2 0x1C66 JUMPI PUSH2 0x1C65 PUSH2 0x1B39 JUMP JUMPDEST JUMPDEST DUP2 CALLDATALOAD PUSH2 0x1C76 DUP5 DUP3 PUSH1 0x20 DUP7 ADD PUSH2 0x1C0F JUMP JUMPDEST SWAP2 POP POP SWAP3 SWAP2 POP POP JUMP JUMPDEST PUSH1 0x0 DUP1 PUSH1 0x0 PUSH1 0x60 DUP5 DUP7 SUB SLT ISZERO PUSH2 0x1C98 JUMPI PUSH2 0x1C97 PUSH2 0x188E JUMP JUMPDEST JUMPDEST PUSH1 0x0 PUSH2 0x1CA6 DUP7 DUP3 DUP8 ADD PUSH2 0x19A4 JUMP JUMPDEST SWAP4 POP POP PUSH1 0x20 PUSH2 0x1CB7 DUP7 DUP3 DUP8 ADD PUSH2 0x18B9 JUMP JUMPDEST SWAP3 POP POP PUSH1 0x40 DUP5 ADD CALLDATALOAD PUSH8 0xFFFFFFFFFFFFFFFF DUP2 GT ISZERO PUSH2 0x1CD8 JUMPI PUSH2 0x1CD7 PUSH2 0x1893 JUMP JUMPDEST JUMPDEST PUSH2 0x1CE4 DUP7 DUP3 DUP8 ADD PUSH2 0x1C51 JUMP JUMPDEST SWAP2 POP POP SWAP3 POP SWAP3 POP SWAP3 JUMP JUMPDEST PUSH32 0x4E487B7100000000000000000000000000000000000000000000000000000000 PUSH1 0x0 MSTORE PUSH1 0x11 PUSH1 0x4 MSTORE PUSH1 0x24 PUSH1 0x0 REVERT JUMPDEST PUSH1 0x0 PUSH2 0x1D28 DUP3 PUSH2 0x1898 JUMP JUMPDEST SWAP2 POP PUSH2 0x1D33 DUP4 PUSH2 0x1898 JUMP JUMPDEST SWAP3 POP DUP3 DUP3 ADD SWAP1 POP DUP1 DUP3 GT ISZERO PUSH2 0x1D4B JUMPI PUSH2 0x1D4A PUSH2 0x1CEE JUMP JUMPDEST JUMPDEST SWAP3 SWAP2 POP POP JUMP JUMPDEST PUSH1 0x0 PUSH1 0x80 DUP3 ADD SWAP1 POP PUSH2 0x1D66 PUSH1 0x0 DUP4 ADD DUP8 PUSH2 0x19F9 JUMP JUMPDEST PUSH2 0x1D73 PUSH1 0x20 DUP4 ADD DUP7 PUSH2 0x19F9 JUMP JUMPDEST PUSH2 0x1D80 PUSH1 0x40 DUP4 ADD DUP6 PUSH2 0x1931 JUMP JUMPDEST PUSH2 0x1D8D PUSH1 0x60 DUP4 ADD DUP5 PUSH2 0x1931 JUMP JUMPDEST SWAP6 SWAP5 POP POP POP POP POP JUMP JUMPDEST PUSH1 0x0 PUSH1 0x60 DUP3 ADD SWAP1 POP PUSH2 0x1DAB PUSH1 0x0 DUP4 ADD DUP7 PUSH2 0x19F9 JUMP JUMPDEST PUSH2 0x1DB8 PUSH1 0x20 DUP4 ADD DUP6 PUSH2 0x19F9 JUMP JUMPDEST PUSH2 0x1DC5 PUSH1 0x40 DUP4 ADD DUP5 PUSH2 0x1931 JUMP JUMPDEST SWAP5 SWAP4 POP POP POP POP JUMP JUMPDEST PUSH2 0x1DD6 DUP2 PUSH2 0x18FB JUMP JUMPDEST DUP2 EQ PUSH2 0x1DE1 JUMPI PUSH1 0x0 DUP1 REVERT JUMPDEST POP JUMP JUMPDEST PUSH1 0x0 DUP2 MLOAD SWAP1 POP PUSH2 0x1DF3 DUP2 PUSH2 0x1DCD JUMP JUMPDEST SWAP3 SWAP2 POP POP JUMP JUMPDEST PUSH1 0x0 PUSH1 0x20 DUP3 DUP5 SUB SLT ISZERO PUSH2 0x1E0F JUMPI PUSH2 0x1E0E PUSH2 0x188E JUMP JUMPDEST JUMPDEST PUSH1 0x0 PUSH2 0x1E1D DUP5 DUP3 DUP6 ADD PUSH2 0x1DE4 JUMP JUMPDEST SWAP2 POP POP SWAP3 SWAP2 POP POP JUMP JUMPDEST PUSH1 0x0 DUP3 DUP3 MSTORE PUSH1 0x20 DUP3 ADD SWAP1 POP SWAP3 SWAP2 POP POP JUMP JUMPDEST PUSH32 0x45786368616E67653A20546F6B656E207472616E73666572206661696C656400 PUSH1 0x0 DUP3 ADD MSTORE POP JUMP JUMPDEST PUSH1 0x0 PUSH2 0x1E6D PUSH1 0x1F DUP4 PUSH2 0x1E26 JUMP JUMPDEST SWAP2 POP PUSH2 0x1E78 DUP3 PUSH2 0x1E37 JUMP JUMPDEST PUSH1 0x20 DUP3 ADD SWAP1 POP SWAP2 SWAP1 POP JUMP JUMPDEST PUSH1 0x0 PUSH1 0x20 DUP3 ADD SWAP1 POP DUP2 DUP2 SUB PUSH1 0x0 DUP4 ADD MSTORE PUSH2 0x1E9C DUP2 PUSH2 0x1E60 JUMP JUMPDEST SWAP1 POP SWAP2 SWAP1 POP JUMP JUMPDEST PUSH32 0x45786368616E67653A204F7264657220646F6573206E6F742065786973740000 PUSH1 0x0 DUP3 ADD MSTORE POP JUMP JUMPDEST PUSH1 0x0 PUSH2 0x1ED9 PUSH1 0x1E DUP4 PUSH2 0x1E26 JUMP JUMPDEST SWAP2 POP PUSH2 0x1EE4 DUP3 PUSH2 0x1EA3 JUMP JUMPDEST PUSH1 0x20 DUP3 ADD SWAP1 POP SWAP2 SWAP1 POP JUMP JUMPDEST PUSH1 0x0 PUSH1 0x20 DUP3 ADD SWAP1 POP DUP2 DUP2 SUB PUSH1 0x0 DUP4 ADD MSTORE PUSH2 0x1F08 DUP2 PUSH2 0x1ECC JUMP JUMPDEST SWAP1 POP SWAP2 SWAP1 POP JUMP JUMPDEST PUSH32 0x45786368616E67653A204E4F5420746865204F776E6572000000000000000000 PUSH1 0x0 DUP3 ADD MSTORE POP JUMP JUMPDEST PUSH1 0x0 PUSH2 0x1F45 PUSH1 0x17 DUP4 PUSH2 0x1E26 JUMP JUMPDEST SWAP2 POP PUSH2 0x1F50 DUP3 PUSH2 0x1F0F JUMP JUMPDEST PUSH1 0x20 DUP3 ADD SWAP1 POP SWAP2 SWAP1 POP JUMP JUMPDEST PUSH1 0x0 PUSH1 0x20 DUP3 ADD SWAP1 POP DUP2 DUP2 SUB PUSH1 0x0 DUP4 ADD MSTORE PUSH2 0x1F74 DUP2 PUSH2 0x1F38 JUMP JUMPDEST SWAP1 POP SWAP2 SWAP1 POP JUMP JUMPDEST PUSH1 0x0 PUSH2 0x1F86 DUP3 PUSH2 0x1898 JUMP JUMPDEST SWAP2 POP PUSH2 0x1F91 DUP4 PUSH2 0x1898 JUMP JUMPDEST SWAP3 POP DUP3 DUP3 SUB SWAP1 POP DUP2 DUP2 GT ISZERO PUSH2 0x1FA9 JUMPI PUSH2 0x1FA8 PUSH2 0x1CEE JUMP JUMPDEST JUMPDEST SWAP3 SWAP2 POP POP JUMP JUMPDEST PUSH32 0x45786368616E67653A204F7264657220646F6573206E6F742045786973740000 PUSH1 0x0 DUP3 ADD MSTORE POP JUMP JUMPDEST PUSH1 0x0 PUSH2 0x1FE5 PUSH1 0x1E DUP4 PUSH2 0x1E26 JUMP JUMPDEST SWAP2 POP PUSH2 0x1FF0 DUP3 PUSH2 0x1FAF JUMP JUMPDEST PUSH1 0x20 DUP3 ADD SWAP1 POP SWAP2 SWAP1 POP JUMP JUMPDEST PUSH1 0x0 PUSH1 0x20 DUP3 ADD SWAP1 POP DUP2 DUP2 SUB PUSH1 0x0 DUP4 ADD MSTORE PUSH2 0x2014 DUP2 PUSH2 0x1FD8 JUMP JUMPDEST SWAP1 POP SWAP2 SWAP1 POP JUMP JUMPDEST PUSH32 0x45786368616E67653A204F726465722068617320616C7265616479206265656E PUSH1 0x0 DUP3 ADD MSTORE PUSH32 0x2066696C6C656400000000000000000000000000000000000000000000000000 PUSH1 0x20 DUP3 ADD MSTORE POP JUMP JUMPDEST PUSH1 0x0 PUSH2 0x2077 PUSH1 0x27 DUP4 PUSH2 0x1E26 JUMP JUMPDEST SWAP2 POP PUSH2 0x2082 DUP3 PUSH2 0x201B JUMP JUMPDEST PUSH1 0x40 DUP3 ADD SWAP1 POP SWAP2 SWAP1 POP JUMP JUMPDEST PUSH1 0x0 PUSH1 0x20 DUP3 ADD SWAP1 POP DUP2 DUP2 SUB PUSH1 0x0 DUP4 ADD MSTORE PUSH2 0x20A6 DUP2 PUSH2 0x206A JUMP JUMPDEST SWAP1 POP SWAP2 SWAP1 POP JUMP JUMPDEST PUSH32 0x45786368616E67653A204F7264657220686173206265656E2063616E63656C65 PUSH1 0x0 DUP3 ADD MSTORE PUSH32 0x6400000000000000000000000000000000000000000000000000000000000000 PUSH1 0x20 DUP3 ADD MSTORE POP JUMP JUMPDEST PUSH1 0x0 PUSH2 0x2109 PUSH1 0x21 DUP4 PUSH2 0x1E26 JUMP JUMPDEST SWAP2 POP PUSH2 0x2114 DUP3 PUSH2 0x20AD JUMP JUMPDEST PUSH1 0x40 DUP3 ADD SWAP1 POP SWAP2 SWAP1 POP JUMP JUMPDEST PUSH1 0x0 PUSH1 0x20 DUP3 ADD SWAP1 POP DUP2 DUP2 SUB PUSH1 0x0 DUP4 ADD MSTORE PUSH2 0x2138 DUP2 PUSH2 0x20FC JUMP JUMPDEST SWAP1 POP SWAP2 SWAP1 POP JUMP JUMPDEST PUSH32 0x45786368616E67653A20496E73756666696369656E742062616C616E63650000 PUSH1 0x0 DUP3 ADD MSTORE POP JUMP JUMPDEST PUSH1 0x0 PUSH2 0x2175 PUSH1 0x1E DUP4 PUSH2 0x1E26 JUMP JUMPDEST SWAP2 POP PUSH2 0x2180 DUP3 PUSH2 0x213F JUMP JUMPDEST PUSH1 0x20 DUP3 ADD SWAP1 POP SWAP2 SWAP1 POP JUMP JUMPDEST PUSH1 0x0 PUSH1 0x20 DUP3 ADD SWAP1 POP DUP2 DUP2 SUB PUSH1 0x0 DUP4 ADD MSTORE PUSH2 0x21A4 DUP2 PUSH2 0x2168 JUMP JUMPDEST SWAP1 POP SWAP2 SWAP1 POP JUMP JUMPDEST PUSH1 0x0 PUSH2 0x21B6 DUP3 PUSH2 0x1898 JUMP JUMPDEST SWAP2 POP PUSH32 0xFFFFFFFFFFFFFFFFFFFFFFFFFFFFFFFFFFFFFFFFFFFFFFFFFFFFFFFFFFFFFFFF DUP3 SUB PUSH2 0x21E8 JUMPI PUSH2 0x21E7 PUSH2 0x1CEE JUMP JUMPDEST JUMPDEST PUSH1 0x1 DUP3 ADD SWAP1 POP SWAP2 SWAP1 POP JUMP JUMPDEST PUSH32 0x45786368616E67653A20496E73756666696369656E742042616C616E63650000 PUSH1 0x0 DUP3 ADD MSTORE POP JUMP JUMPDEST PUSH1 0x0 PUSH2 0x2229 PUSH1 0x1E DUP4 PUSH2 0x1E26 JUMP JUMPDEST SWAP2 POP PUSH2 0x2234 DUP3 PUSH2 0x21F3 JUMP JUMPDEST PUSH1 0x20 DUP3 ADD SWAP1 POP SWAP2 SWAP1 POP JUMP JUMPDEST PUSH1 0x0 PUSH1 0x20 DUP3 ADD SWAP1 POP DUP2 DUP2 SUB PUSH1 0x0 DUP4 ADD MSTORE PUSH2 0x2258 DUP2 PUSH2 0x221C JUMP JUMPDEST SWAP1 POP SWAP2 SWAP1 POP JUMP JUMPDEST PUSH1 0x0 PUSH1 0x40 DUP3 ADD SWAP1 POP PUSH2 0x2274 PUSH1 0x0 DUP4 ADD DUP6 PUSH2 0x19F9 JUMP JUMPDEST PUSH2 0x2281 PUSH1 0x20 DUP4 ADD DUP5 PUSH2 0x1931 JUMP JUMPDEST SWAP4 SWAP3 POP POP POP JUMP JUMPDEST PUSH1 0x0 DUP2 MLOAD SWAP1 POP PUSH2 0x2297 DUP2 PUSH2 0x18A2 JUMP JUMPDEST SWAP3 SWAP2 POP POP JUMP JUMPDEST PUSH1 0x0 PUSH1 0x20 DUP3 DUP5 SUB SLT ISZERO PUSH2 0x22B3 JUMPI PUSH2 0x22B2 PUSH2 0x188E JUMP JUMPDEST JUMPDEST PUSH1 0x0 PUSH2 0x22C1 DUP5 DUP3 DUP6 ADD PUSH2 0x2288 JUMP JUMPDEST SWAP2 POP POP SWAP3 SWAP2 POP POP JUMP JUMPDEST PUSH32 0x466C6173684C6F616E50726F76696465723A20496E73756666696369656E7420 PUSH1 0x0 DUP3 ADD MSTORE PUSH32 0x66756E647320746F206C6F616E00000000000000000000000000000000000000 PUSH1 0x20 DUP3 ADD MSTORE POP JUMP JUMPDEST PUSH1 0x0 PUSH2 0x2326 PUSH1 0x2D DUP4 PUSH2 0x1E26 JUMP JUMPDEST SWAP2 POP PUSH2 0x2331 DUP3 PUSH2 0x22CA JUMP JUMPDEST PUSH1 0x40 DUP3 ADD SWAP1 POP SWAP2 SWAP1 POP JUMP JUMPDEST PUSH1 0x0 PUSH1 0x20 DUP3 ADD SWAP1 POP DUP2 DUP2 SUB PUSH1 0x0 DUP4 ADD MSTORE PUSH2 0x2355 DUP2 PUSH2 0x2319 JUMP JUMPDEST SWAP1 POP SWAP2 SWAP1 POP JUMP JUMPDEST PUSH32 0x466C6173684C6F616E50726F76696465723A205472616E73666572204661696C PUSH1 0x0 DUP3 ADD MSTORE PUSH32 0x6564000000000000000000000000000000000000000000000000000000000000 PUSH1 0x20 DUP3 ADD MSTORE POP JUMP JUMPDEST PUSH1 0x0 PUSH2 0x23B8 PUSH1 0x22 DUP4 PUSH2 0x1E26 JUMP JUMPDEST SWAP2 POP PUSH2 0x23C3 DUP3 PUSH2 0x235C JUMP JUMPDEST PUSH1 0x40 DUP3 ADD SWAP1 POP SWAP2 SWAP1 POP JUMP JUMPDEST PUSH1 0x0 PUSH1 0x20 DUP3 ADD SWAP1 POP DUP2 DUP2 SUB PUSH1 0x0 DUP4 ADD MSTORE PUSH2 0x23E7 DUP2 PUSH2 0x23AB JUMP JUMPDEST SWAP1 POP SWAP2 SWAP1 POP JUMP JUMPDEST PUSH1 0x0 DUP2 MLOAD SWAP1 POP SWAP2 SWAP1 POP JUMP JUMPDEST PUSH1 0x0 DUP3 DUP3 MSTORE PUSH1 0x20 DUP3 ADD SWAP1 POP SWAP3 SWAP2 POP POP JUMP JUMPDEST PUSH1 0x0 JUMPDEST DUP4 DUP2 LT ISZERO PUSH2 0x2428 JUMPI DUP1 DUP3 ADD MLOAD DUP2 DUP5 ADD MSTORE PUSH1 0x20 DUP2 ADD SWAP1 POP PUSH2 0x240D JUMP JUMPDEST PUSH1 0x0 DUP5 DUP5 ADD MSTORE POP POP POP POP JUMP JUMPDEST PUSH1 0x0 PUSH2 0x243F DUP3 PUSH2 0x23EE JUMP JUMPDEST PUSH2 0x2449 DUP2 DUP6 PUSH2 0x23F9 JUMP JUMPDEST SWAP4 POP PUSH2 0x2459 DUP2 DUP6 PUSH1 0x20 DUP7 ADD PUSH2 0x240A JUMP JUMPDEST PUSH2 0x2462 DUP2 PUSH2 0x1B43 JUMP JUMPDEST DUP5 ADD SWAP2 POP POP SWAP3 SWAP2 POP POP JUMP JUMPDEST PUSH1 0x0 PUSH1 0x60 DUP3 ADD SWAP1 POP PUSH2 0x2482 PUSH1 0x0 DUP4 ADD DUP7 PUSH2 0x19F9 JUMP JUMPDEST PUSH2 0x248F PUSH1 0x20 DUP4 ADD DUP6 PUSH2 0x1931 JUMP JUMPDEST DUP2 DUP2 SUB PUSH1 0x40 DUP4 ADD MSTORE PUSH2 0x24A1 DUP2 DUP5 PUSH2 0x2434 JUMP JUMPDEST SWAP1 POP SWAP5 SWAP4 POP POP POP POP JUMP JUMPDEST PUSH32 0x466C6173684C6F616E50726F76696465723A2046756E6473206E6F7420526563 PUSH1 0x0 DUP3 ADD MSTORE PUSH32 0x6569766564000000000000000000000000000000000000000000000000000000 PUSH1 0x20 DUP3 ADD MSTORE POP JUMP JUMPDEST PUSH1 0x0 PUSH2 0x2507 PUSH1 0x25 DUP4 PUSH2 0x1E26 JUMP JUMPDEST SWAP2 POP PUSH2 0x2512 DUP3 PUSH2 0x24AB JUMP JUMPDEST PUSH1 0x40 DUP3 ADD SWAP1 POP SWAP2 SWAP1 POP JUMP JUMPDEST PUSH1 0x0 PUSH1 0x20 DUP3 ADD SWAP1 POP DUP2 DUP2 SUB PUSH1 0x0 DUP4 ADD MSTORE PUSH2 0x2536 DUP2 PUSH2 0x24FA JUMP JUMPDEST SWAP1 POP SWAP2 SWAP1 POP JUMP JUMPDEST PUSH1 0x0 PUSH1 0x60 DUP3 ADD SWAP1 POP PUSH2 0x2552 PUSH1 0x0 DUP4 ADD DUP7 PUSH2 0x19F9 JUMP JUMPDEST PUSH2 0x255F PUSH1 0x20 DUP4 ADD DUP6 PUSH2 0x1931 JUMP JUMPDEST PUSH2 0x256C PUSH1 0x40 DUP4 ADD DUP5 PUSH2 0x1931 JUMP JUMPDEST SWAP5 SWAP4 POP POP POP POP JUMP JUMPDEST PUSH1 0x0 PUSH2 0x257F DUP3 PUSH2 0x1898 JUMP JUMPDEST SWAP2 POP PUSH2 0x258A DUP4 PUSH2 0x1898 JUMP JUMPDEST SWAP3 POP DUP3 DUP3 MUL PUSH2 0x2598 DUP2 PUSH2 0x1898 JUMP JUMPDEST SWAP2 POP DUP3 DUP3 DIV DUP5 EQ DUP4 ISZERO OR PUSH2 0x25AF JUMPI PUSH2 0x25AE PUSH2 0x1CEE JUMP JUMPDEST JUMPDEST POP SWAP3 SWAP2 POP POP JUMP JUMPDEST PUSH32 0x4E487B7100000000000000000000000000000000000000000000000000000000 PUSH1 0x0 MSTORE PUSH1 0x12 PUSH1 0x4 MSTORE PUSH1 0x24 PUSH1 0x0 REVERT JUMPDEST PUSH1 0x0 PUSH2 0x25F0 DUP3 PUSH2 0x1898 JUMP JUMPDEST SWAP2 POP PUSH2 0x25FB DUP4 PUSH2 0x1898 JUMP JUMPDEST SWAP3 POP DUP3 PUSH2 0x260B JUMPI PUSH2 0x260A PUSH2 0x25B6 JUMP JUMPDEST JUMPDEST DUP3 DUP3 DIV SWAP1 POP SWAP3 SWAP2 POP POP JUMP JUMPDEST PUSH1 0x0 PUSH2 0x100 DUP3 ADD SWAP1 POP PUSH2 0x262C PUSH1 0x0 DUP4 ADD DUP12 PUSH2 0x1931 JUMP JUMPDEST PUSH2 0x2639 PUSH1 0x20 DUP4 ADD DUP11 PUSH2 0x19F9 JUMP JUMPDEST PUSH2 0x2646 PUSH1 0x40 DUP4 ADD DUP10 PUSH2 0x19F9 JUMP JUMPDEST PUSH2 0x2653 PUSH1 0x60 DUP4 ADD DUP9 PUSH2 0x1931 JUMP JUMPDEST PUSH2 0x2660 PUSH1 0x80 DUP4 ADD DUP8 PUSH2 0x19F9 JUMP JUMPDEST PUSH2 0x266D PUSH1 0xA0 DUP4 ADD DUP7 PUSH2 0x1931 JUMP JUMPDEST PUSH2 0x267A PUSH1 0xC0 DUP4 ADD DUP6 PUSH2 0x19F9 JUMP JUMPDEST PUSH2 0x2687 PUSH1 0xE0 DUP4 ADD DUP5 PUSH2 0x1931 JUMP JUMPDEST SWAP10 SWAP9 POP POP POP POP POP POP POP POP POP JUMP INVALID LOG2 PUSH5 0x6970667358 0x22 SLT KECCAK256 0xEC 0x4E SWAP8 0xBD DUP16 SMOD SWAP1 MUL LOG2 0xEF PUSH6 0xB8E762D74B06 BLOBBASEFEE MLOAD SMOD SDIV 0xAA CODECOPY 0xE4 PC DUP1 0x4C 0x26 0xA9 LOG1 0xAC 0xA9 PUSH5 0x736F6C6343 STOP ADDMOD SHR STOP CALLER "
        },
        "methodIdentifiers": {
          "activeBalanceOf(address,address)": "cd785796",
          "cancelOrder(uint256)": "514fcac7",
          "depositToken(address,uint256)": "338b5dea",
          "feeAccount()": "65e17c9d",
          "feePercent()": "7fd6f15c",
          "fillOrder(uint256)": "67b830ad",
          "flashLoan(address,uint256,bytes)": "e0232b42",
          "isOrderCancelled(uint256)": "1b1d1c81",
          "isOrderFilled(uint256)": "d425cb6f",
          "makeOrder(address,uint256,address,uint256)": "9a5c90aa",
          "orderCount()": "2453ffa8",
          "orders(uint256)": "a85c38ef",
          "totalBalanceOf(address,address)": "84d10bff",
          "withdrawToken(address,uint256)": "9e281a98"
        }
      }
    }
  }
}